{
  "contractName": "Microsponsors",
  "abi": [
    {
      "constant": true,
      "inputs": [
        {
          "name": "",
          "type": "uint256"
        }
      ],
      "name": "sponsorSlots",
      "outputs": [
        {
          "name": "propertyId",
          "type": "uint256"
        },
        {
          "name": "startTime",
          "type": "uint32"
        },
        {
          "name": "endTime",
          "type": "uint32"
        }
      ],
      "payable": false,
      "stateMutability": "view",
      "type": "function"
    },
    {
      "constant": true,
      "inputs": [],
      "name": "name",
      "outputs": [
        {
          "name": "",
          "type": "string"
        }
      ],
      "payable": false,
      "stateMutability": "view",
      "type": "function"
    },
    {
      "constant": true,
      "inputs": [],
      "name": "duration",
      "outputs": [
        {
          "name": "",
          "type": "uint32"
        }
      ],
      "payable": false,
      "stateMutability": "view",
      "type": "function"
    },
    {
      "constant": true,
      "inputs": [
        {
          "name": "",
          "type": "address"
        }
      ],
      "name": "ownerToSponsorSlotCount",
      "outputs": [
        {
          "name": "",
          "type": "uint256"
        }
      ],
      "payable": false,
      "stateMutability": "view",
      "type": "function"
    },
    {
      "constant": true,
      "inputs": [
        {
          "name": "",
          "type": "uint256"
        }
      ],
      "name": "sponsorSlotIdToApproved",
      "outputs": [
        {
          "name": "",
          "type": "address"
        }
      ],
      "payable": false,
      "stateMutability": "view",
      "type": "function"
    },
    {
      "constant": true,
      "inputs": [],
      "name": "symbol",
      "outputs": [
        {
          "name": "",
          "type": "string"
        }
      ],
      "payable": false,
      "stateMutability": "view",
      "type": "function"
    },
    {
      "constant": true,
      "inputs": [
        {
          "name": "",
          "type": "uint256"
        }
      ],
      "name": "sponsorSlotToOwner",
      "outputs": [
        {
          "name": "",
          "type": "address"
        }
      ],
      "payable": false,
      "stateMutability": "view",
      "type": "function"
    },
    {
      "constant": true,
      "inputs": [
        {
          "name": "",
          "type": "uint256"
        }
      ],
      "name": "properties",
      "outputs": [
        {
          "name": "owner",
          "type": "address"
        },
        {
          "name": "propertyName",
          "type": "string"
        }
      ],
      "payable": false,
      "stateMutability": "view",
      "type": "function"
    },
    {
      "inputs": [],
      "payable": false,
      "stateMutability": "nonpayable",
      "type": "constructor"
    },
    {
      "anonymous": false,
      "inputs": [
        {
          "indexed": false,
          "name": "owner",
          "type": "address"
        },
        {
          "indexed": false,
          "name": "propertyId",
          "type": "uint256"
        }
      ],
      "name": "PropertyCreated",
      "type": "event"
    },
    {
      "anonymous": false,
      "inputs": [
        {
          "indexed": false,
          "name": "from",
          "type": "address"
        },
        {
          "indexed": false,
          "name": "to",
          "type": "address"
        },
        {
          "indexed": false,
          "name": "tokenId",
          "type": "uint256"
        }
      ],
      "name": "Transfer",
      "type": "event"
    },
    {
      "anonymous": false,
      "inputs": [
        {
          "indexed": false,
          "name": "owner",
          "type": "address"
        },
        {
          "indexed": false,
          "name": "approved",
          "type": "address"
        },
        {
          "indexed": false,
          "name": "tokenId",
          "type": "uint256"
        }
      ],
      "name": "Approval",
      "type": "event"
    },
    {
      "constant": false,
      "inputs": [
        {
          "name": "_creator",
          "type": "address"
        },
        {
          "name": "_propertyName",
          "type": "string"
        },
        {
          "name": "_startTime",
          "type": "uint32"
        }
      ],
      "name": "mint",
      "outputs": [
        {
          "name": "",
          "type": "uint256"
        }
      ],
      "payable": false,
      "stateMutability": "nonpayable",
      "type": "function"
    },
    {
      "constant": true,
      "inputs": [
        {
          "name": "_tokenId",
          "type": "uint256"
        }
      ],
      "name": "getPropertyNameFromToken",
      "outputs": [
        {
          "name": "",
          "type": "string"
        }
      ],
      "payable": false,
      "stateMutability": "view",
      "type": "function"
    },
    {
      "constant": true,
      "inputs": [],
      "name": "totalSupply",
      "outputs": [
        {
          "name": "",
          "type": "uint256"
        }
      ],
      "payable": false,
      "stateMutability": "view",
      "type": "function"
    },
    {
      "constant": true,
      "inputs": [
        {
          "name": "_owner",
          "type": "address"
        }
      ],
      "name": "balanceOf",
      "outputs": [
        {
          "name": "count",
          "type": "uint256"
        }
      ],
      "payable": false,
      "stateMutability": "view",
      "type": "function"
    },
    {
      "constant": true,
      "inputs": [
        {
          "name": "_tokenId",
          "type": "uint256"
        }
      ],
      "name": "ownerOf",
      "outputs": [
        {
          "name": "owner",
          "type": "address"
        }
      ],
      "payable": false,
      "stateMutability": "view",
      "type": "function"
    },
    {
      "constant": false,
      "inputs": [
        {
          "name": "_to",
          "type": "address"
        },
        {
          "name": "_tokenId",
          "type": "uint256"
        }
      ],
      "name": "approve",
      "outputs": [],
      "payable": false,
      "stateMutability": "nonpayable",
      "type": "function"
    },
    {
      "constant": false,
      "inputs": [
        {
          "name": "_to",
          "type": "address"
        },
        {
          "name": "_tokenId",
          "type": "uint256"
        }
      ],
      "name": "transfer",
      "outputs": [],
      "payable": false,
      "stateMutability": "nonpayable",
      "type": "function"
    },
    {
      "constant": false,
      "inputs": [
        {
          "name": "_from",
          "type": "address"
        },
        {
          "name": "_to",
          "type": "address"
        },
        {
          "name": "_tokenId",
          "type": "uint256"
        }
      ],
      "name": "transferFrom",
      "outputs": [],
      "payable": false,
      "stateMutability": "nonpayable",
      "type": "function"
    },
    {
      "constant": true,
      "inputs": [
        {
          "name": "_owner",
          "type": "address"
        }
      ],
      "name": "tokensOfOwner",
      "outputs": [
        {
          "name": "tokenIds",
          "type": "uint256[]"
        }
      ],
      "payable": false,
      "stateMutability": "view",
      "type": "function"
    }
  ],
  "bytecode": "0x608060405234801561001057600080fd5b50611788806100206000396000f3006080604052600436106100f1576000357c0100000000000000000000000000000000000000000000000000000000900463ffffffff16806305f4f589146100f657806306fdde031461015d578063095ea7b3146101ed5780630fb5a6b41461023a57806318160ddd1461027157806323b872dd1461029c5780632fab63631461030957806340a876de146103605780635b3f1fa81461040d5780636352211e1461047a57806370a08231146104e75780638462151c1461053e57806395d89b41146105d6578063a43185e514610666578063a9059cbb1461070c578063e4512b3414610759578063f7b10808146107c6575b600080fd5b34801561010257600080fd5b506101216004803603810190808035906020019092919050505061089f565b604051808481526020018363ffffffff1663ffffffff1681526020018263ffffffff1663ffffffff168152602001935050505060405180910390f35b34801561016957600080fd5b506101726108f8565b6040518080602001828103825283818151815260200191508051906020019080838360005b838110156101b2578082015181840152602081019050610197565b50505050905090810190601f1680156101df5780820380516001836020036101000a031916815260200191505b509250505060405180910390f35b3480156101f957600080fd5b50610238600480360381019080803573ffffffffffffffffffffffffffffffffffffffff16906020019092919080359060200190929190505050610931565b005b34801561024657600080fd5b5061024f6109f3565b604051808263ffffffff1663ffffffff16815260200191505060405180910390f35b34801561027d57600080fd5b506102866109fa565b6040518082815260200191505060405180910390f35b3480156102a857600080fd5b50610307600480360381019080803573ffffffffffffffffffffffffffffffffffffffff169060200190929190803573ffffffffffffffffffffffffffffffffffffffff16906020019092919080359060200190929190505050610a06565b005b34801561031557600080fd5b5061034a600480360381019080803573ffffffffffffffffffffffffffffffffffffffff169060200190929190505050610ab7565b6040518082815260200191505060405180910390f35b34801561036c57600080fd5b506103f7600480360381019080803573ffffffffffffffffffffffffffffffffffffffff169060200190929190803590602001908201803590602001908080601f0160208091040260200160405190810160405280939291908181526020018383808284378201915050505050509192919290803563ffffffff169060200190929190505050610acf565b6040518082815260200191505060405180910390f35b34801561041957600080fd5b5061043860048036038101908080359060200190929190505050610cf2565b604051808273ffffffffffffffffffffffffffffffffffffffff1673ffffffffffffffffffffffffffffffffffffffff16815260200191505060405180910390f35b34801561048657600080fd5b506104a560048036038101908080359060200190929190505050610d25565b604051808273ffffffffffffffffffffffffffffffffffffffff1673ffffffffffffffffffffffffffffffffffffffff16815260200191505060405180910390f35b3480156104f357600080fd5b50610528600480360381019080803573ffffffffffffffffffffffffffffffffffffffff169060200190929190505050610d9e565b6040518082815260200191505060405180910390f35b34801561054a57600080fd5b5061057f600480360381019080803573ffffffffffffffffffffffffffffffffffffffff169060200190929190505050610de7565b6040518080602001828103825283818151815260200191508051906020019060200280838360005b838110156105c25780820151818401526020810190506105a7565b505050509050019250505060405180910390f35b3480156105e257600080fd5b506105eb610f34565b6040518080602001828103825283818151815260200191508051906020019080838360005b8381101561062b578082015181840152602081019050610610565b50505050905090810190601f1680156106585780820380516001836020036101000a031916815260200191505b509250505060405180910390f35b34801561067257600080fd5b5061069160048036038101908080359060200190929190505050610f6d565b6040518080602001828103825283818151815260200191508051906020019080838360005b838110156106d15780820151818401526020810190506106b6565b50505050905090810190601f1680156106fe5780820380516001836020036101000a031916815260200191505b509250505060405180910390f35b34801561071857600080fd5b50610757600480360381019080803573ffffffffffffffffffffffffffffffffffffffff16906020019092919080359060200190929190505050611054565b005b34801561076557600080fd5b50610784600480360381019080803590602001909291905050506110ef565b604051808273ffffffffffffffffffffffffffffffffffffffff1673ffffffffffffffffffffffffffffffffffffffff16815260200191505060405180910390f35b3480156107d257600080fd5b506107f160048036038101908080359060200190929190505050611122565b604051808373ffffffffffffffffffffffffffffffffffffffff1673ffffffffffffffffffffffffffffffffffffffff16815260200180602001828103825283818151815260200191508051906020019080838360005b83811015610863578082015181840152602081019050610848565b50505050905090810190601f1680156108905780820380516001836020036101000a031916815260200191505b50935050505060405180910390f35b6000818154811015156108ae57fe5b90600052602060002090600202016000915090508060000154908060010160009054906101000a900463ffffffff16908060010160049054906101000a900463ffffffff16905083565b6040805190810160405280600d81526020017f4d6963726f73706f6e736f72730000000000000000000000000000000000000081525081565b61093b338261120d565b151561094657600080fd5b610950818361124e565b7f8c5be1e5ebec7d5bd14f71427d1e84f3dd0314c0f7b2291e5b200ac8c7c3b925338383604051808473ffffffffffffffffffffffffffffffffffffffff1673ffffffffffffffffffffffffffffffffffffffff1681526020018373ffffffffffffffffffffffffffffffffffffffff1673ffffffffffffffffffffffffffffffffffffffff168152602001828152602001935050505060405180910390a15050565b6201518081565b60008080549050905090565b600073ffffffffffffffffffffffffffffffffffffffff168273ffffffffffffffffffffffffffffffffffffffff1614151515610a4257600080fd5b3073ffffffffffffffffffffffffffffffffffffffff168273ffffffffffffffffffffffffffffffffffffffff1614151515610a7d57600080fd5b610a8733826112a4565b1515610a9257600080fd5b610a9c838261120d565b1515610aa757600080fd5b610ab2838383611310565b505050565b60036020528060005260406000206000915090505481565b600080610ada611659565b6000610ae68787611512565b92506060604051908101604052808481526020018663ffffffff16815260200162015180870163ffffffff1681525091506001600083908060018154018082558091505090600182039060005260206000209060020201600090919290919091506000820151816000015560208201518160010160006101000a81548163ffffffff021916908363ffffffff16021790555060408201518160010160046101000a81548163ffffffff021916908363ffffffff1602179055505050039050866002600083815260200190815260200160002060006101000a81548173ffffffffffffffffffffffffffffffffffffffff021916908373ffffffffffffffffffffffffffffffffffffffff160217905550600360008873ffffffffffffffffffffffffffffffffffffffff1673ffffffffffffffffffffffffffffffffffffffff168152602001908152602001600020600081548092919060010191905055507fddf252ad1be2c89b69c2b068fc378daa952ba7f163c4a11628f55a4df523b3ef60008883604051808473ffffffffffffffffffffffffffffffffffffffff1673ffffffffffffffffffffffffffffffffffffffff1681526020018373ffffffffffffffffffffffffffffffffffffffff1673ffffffffffffffffffffffffffffffffffffffff168152602001828152602001935050505060405180910390a18093505050509392505050565b60046020528060005260406000206000915054906101000a900473ffffffffffffffffffffffffffffffffffffffff1681565b60006002600083815260200190815260200160002060009054906101000a900473ffffffffffffffffffffffffffffffffffffffff169050600073ffffffffffffffffffffffffffffffffffffffff168173ffffffffffffffffffffffffffffffffffffffff1614151515610d9957600080fd5b919050565b6000600360008373ffffffffffffffffffffffffffffffffffffffff1673ffffffffffffffffffffffffffffffffffffffff168152602001908152602001600020549050919050565b6060600060606000806000610dfb87610d9e565b94506000851415610e3e576000604051908082528060200260200182016040528015610e365781602001602082028038833980820191505090505b509550610f2a565b84604051908082528060200260200182016040528015610e6d5781602001602082028038833980820191505090505b509350610e786109fa565b925060009150600090505b8281111515610f26578673ffffffffffffffffffffffffffffffffffffffff166002600083815260200190815260200160002060009054906101000a900473ffffffffffffffffffffffffffffffffffffffff1673ffffffffffffffffffffffffffffffffffffffff161415610f1957808483815181101515610f0257fe5b906020019060200201818152505081806001019250505b8080600101915050610e83565b8395505b5050505050919050565b6040805190810160405280600381526020017f4d5350000000000000000000000000000000000000000000000000000000000081525081565b606060008083815481101515610f7f57fe5b9060005260206000209060020201600001549050600181815481101515610fa257fe5b90600052602060002090600202016001018054600181600116156101000203166002900480601f0160208091040260200160405190810160405280929190818152602001828054600181600116156101000203166002900480156110475780601f1061101c57610100808354040283529160200191611047565b820191906000526020600020905b81548152906001019060200180831161102a57829003601f168201915b5050505050915050919050565b600073ffffffffffffffffffffffffffffffffffffffff168273ffffffffffffffffffffffffffffffffffffffff161415151561109057600080fd5b3073ffffffffffffffffffffffffffffffffffffffff168273ffffffffffffffffffffffffffffffffffffffff16141515156110cb57600080fd5b6110d5338261120d565b15156110e057600080fd5b6110eb338383611310565b5050565b60026020528060005260406000206000915054906101000a900473ffffffffffffffffffffffffffffffffffffffff1681565b60018181548110151561113157fe5b90600052602060002090600202016000915090508060000160009054906101000a900473ffffffffffffffffffffffffffffffffffffffff1690806001018054600181600116156101000203166002900480601f0160208091040260200160405190810160405280929190818152602001828054600181600116156101000203166002900480156112035780601f106111d857610100808354040283529160200191611203565b820191906000526020600020905b8154815290600101906020018083116111e657829003601f168201915b5050505050905082565b60008273ffffffffffffffffffffffffffffffffffffffff1661122f83610d25565b73ffffffffffffffffffffffffffffffffffffffff1614905092915050565b806004600084815260200190815260200160002060006101000a81548173ffffffffffffffffffffffffffffffffffffffff021916908373ffffffffffffffffffffffffffffffffffffffff1602179055505050565b60008273ffffffffffffffffffffffffffffffffffffffff166004600084815260200190815260200160002060009054906101000a900473ffffffffffffffffffffffffffffffffffffffff1673ffffffffffffffffffffffffffffffffffffffff1614905092915050565b816002600083815260200190815260200160002060006101000a81548173ffffffffffffffffffffffffffffffffffffffff021916908373ffffffffffffffffffffffffffffffffffffffff160217905550600360008473ffffffffffffffffffffffffffffffffffffffff1673ffffffffffffffffffffffffffffffffffffffff1681526020019081526020016000206000815480929190600190039190505550600073ffffffffffffffffffffffffffffffffffffffff168373ffffffffffffffffffffffffffffffffffffffff1614151561146e57600360008373ffffffffffffffffffffffffffffffffffffffff1673ffffffffffffffffffffffffffffffffffffffff168152602001908152602001600020600081548092919060010191905055506004600082815260200190815260200160002060006101000a81549073ffffffffffffffffffffffffffffffffffffffff02191690555b7fddf252ad1be2c89b69c2b068fc378daa952ba7f163c4a11628f55a4df523b3ef838383604051808473ffffffffffffffffffffffffffffffffffffffff1673ffffffffffffffffffffffffffffffffffffffff1681526020018373ffffffffffffffffffffffffffffffffffffffff1673ffffffffffffffffffffffffffffffffffffffff168152602001828152602001935050505060405180910390a1505050565b600061151c611687565b600060408051908101604052808673ffffffffffffffffffffffffffffffffffffffff168152602001858152509150600180839080600181540180825580915050906001820390600052602060002090600202016000909192909190915060008201518160000160006101000a81548173ffffffffffffffffffffffffffffffffffffffff021916908373ffffffffffffffffffffffffffffffffffffffff16021790555060208201518160010190805190602001906115dd9291906116b7565b5050500390507f01c79a3cb2db1a8ea30612fb784609966eedbb0bd5c11c56eb6609562dea82158582604051808373ffffffffffffffffffffffffffffffffffffffff1673ffffffffffffffffffffffffffffffffffffffff1681526020018281526020019250505060405180910390a1809250505092915050565b60606040519081016040528060008152602001600063ffffffff168152602001600063ffffffff1681525090565b6040805190810160405280600073ffffffffffffffffffffffffffffffffffffffff168152602001606081525090565b828054600181600116156101000203166002900490600052602060002090601f016020900481019282601f106116f857805160ff1916838001178555611726565b82800160010185558215611726579182015b8281111561172557825182559160200191906001019061170a565b5b5090506117339190611737565b5090565b61175991905b8082111561175557600081600090555060010161173d565b5090565b905600a165627a7a723058208387017ec1d7144794eef3863495b94913a8965300fc2fb9e92544ce7892c73a0029",
  "source": "/**\n* Microsponsors.io ERC721 Contract - DEMO\n* For 0x Hackathon -  Feb 2019\n*\n* NOTE:\n* This is a very rough draft for demonstration purposes only.\n*\n* This demo uses ERC721 NFTs as a marketplace for sponsorship of content creators.\n* Each token is a Non-Fungible Token (NFT) that represents a time window during\n* which a content creators' property is available to rent by sponsors.\n*\n*/\n\npragma solidity ^0.4.24;\n\n// TODO LATER:\n// import \"./Ownable.sol\";\n\ncontract Microsponsors {\n\n  string public constant name = \"Microsponsors\";\n  string public constant symbol = \"MSP\";\n\n  // TODO LATER duration is hard-coded to 24hr slots for demo purposes only;\n  uint32 public constant duration = 24 hours;\n\n  /**\n  * Events emitted\n  */\n  event PropertyCreated(address owner, uint256 propertyId);\n  event Transfer(address from, address to, uint256 tokenId);\n  event Approval(address owner, address approved, uint256 tokenId);\n  // TODO:\n  // event ApprovalForAll(address indexed owner, address indexed operator, bool approved);\n\n\n  /**\n   * Data\n   */\n\n  // The Microsponsors ERC721 Token:\n  // A SponsorSlot is a window of time during which a Property can be\n  // purchased by a sponsor\n  struct SponsorSlot {\n    uint256 propertyId; // the property that whose time slots are tokenized\n    uint32 startTime; // timestamp for when sponsorship of a Property begins\n    uint32 endTime; // max timestamp of sponsorship (when it ends)\n  }\n\n  struct Property {\n    address owner; // content creators are the owners of properties\n    string propertyName; // unique name of property (ex: 'microsponsors.io-banner-north')\n  }\n\n  SponsorSlot[] public sponsorSlots;\n  Property[] public properties;\n\n  mapping (uint256 => address) public sponsorSlotToOwner;\n  mapping (address => uint256) public ownerToSponsorSlotCount;\n  // Mapping from SponsorSlot ids to an address that has been approved to call\n  // transferFrom(). Each  can only have one approved address for transfer\n  // at any time.\n  mapping (uint256 => address) public sponsorSlotIdToApproved;\n\n\n  /**\n  * Init contract\n  */\n\n  constructor() public {}\n\n\n  /**\n  * Primary public methods\n  */\n\n  /**\n   * TODO: Optimize minting process so that it does NOT cost content creators\n   * extra gas to mint tokenized sponsor slot(s).\n   * Can do this by reliably generating SponsorSlots with a formula\n   * and minting (storing) in contract ONLY when the token is purchased,\n   * so that gas fees are incurred by sponsor only when they buy it (and not\n   * before).\n   * -- h/t to FuelGames.io for the pointer\n   */\n\n  /**\n   * Mint the new SponsorSlot token, assign its ownership to content creator\n   * that is seeking sponsorship of token.\n   * Token will then be transfered to the sponsor when they purchase it.\n   *\n   * TODO LATER: let anyone mint during demo, but production version should\n   * restrict minting to msg.sender by removing _creator param and setting\n   * SponsorSlot.owner to msg.sender.\n   *\n   * NOTE: The .mint() arguments used here are not standard, lets see if\n   * 0x's Asset Buyer will accept it. --LG\n   */\n  function mint(\n    address _creator,\n    string _propertyName,\n    uint32 _startTime\n  ) public returns (uint256) {\n\n    // TODO LATER enforce authorization per user onboarding:\n    // require(isAuthorized(msg.sender));\n\n    uint256 _propertyId = _createProperty(_creator, _propertyName);\n\n    // TODO LATER can just hardcode to validate for demo\n    // require(_isValidSponsorSlot(_creator, _propertyName, _startTime, _endTime));\n\n    SponsorSlot memory _sponsorSlot = SponsorSlot({\n      propertyId: uint256(_propertyId),\n      startTime: uint32(_startTime),\n      endTime: uint32(_startTime + duration)\n    });\n\n    uint256 tokenId = sponsorSlots.push(_sponsorSlot) - 1;\n    sponsorSlotToOwner[tokenId] = _creator;\n    ownerToSponsorSlotCount[_creator]++;\n    emit Transfer(address(0), _creator, tokenId);\n\n    return tokenId;\n  }\n\n  function getPropertyNameFromToken(uint256 _tokenId) external view returns (string) {\n      uint256 propertyId = sponsorSlots[_tokenId].propertyId;\n      return properties[propertyId].propertyName;\n  }\n\n  /**\n   * ERC721 methods\n   */\n  function totalSupply() public view returns (uint) {\n    return sponsorSlots.length;\n  }\n\n  function balanceOf(address _owner) public view returns (uint256 count) {\n    return ownerToSponsorSlotCount[_owner];\n  }\n\n  function ownerOf(uint256 _tokenId) public view returns (address owner) {\n    owner = sponsorSlotToOwner[_tokenId];\n    require(owner != address(0));\n  }\n\n  // Creator approves transfer of the token (a SponsorSlot) to the sponsor\n  // Bidding and order-matching takes place off-chain, so the slot will only\n  // change hands once, from creator to sponsor.\n  function approve(address _to, uint256 _tokenId) external {\n    require(_owns(msg.sender, _tokenId));\n    _approve(_tokenId, _to);\n    emit Approval(msg.sender, _to, _tokenId);\n  }\n\n  // Creators may transfer their own SponsorSlot tokens to another address.\n  function transfer(address _to, uint256 _tokenId) external {\n    // Safety check to prevent against an unexpected 0x0 default.\n    require(_to != address(0));\n    // Disallow transfers to this contract to prevent accidental misuse.\n    // The contract should never own any tokenized SponsorSlots\n    require(_to != address(this));\n    // Only creators can transfer tokenized SponsorSlots to sponsors.\n    require(_owns(msg.sender, _tokenId));\n    // Reassign ownership, clear pending approvals, emit Transfer event.\n    _transfer(msg.sender, _to, _tokenId);\n  }\n\n  // Transfer a SponsorSlot token owned by another address, for which the\n  // calling address has previously been granted transfer approval by the owner.\n  function transferFrom(address _from, address _to, uint256 _tokenId) external {\n    // Safety check to prevent against an unexpected 0x0 default.\n    require(_to != address(0));\n    // Disallow transfers to this contract to prevent accidental misuse.\n    require(_to != address(this));\n    // Check for approval and valid ownership\n    require(_approvedFor(msg.sender, _tokenId));\n    require(_owns(_from, _tokenId));\n\n    // Reassign ownership (also clears pending approvals and emits Transfer event).\n    _transfer(_from, _to, _tokenId);\n  }\n\n  // Returns list of all SponsorSlot ids belonging to an address\n  // Returns a dynamic array, therefore does not support contract-to-contract\n  // calls. Only supported for web3 calls.\n  function tokensOfOwner(address _owner) external view returns (uint256[] tokenIds) {\n    uint256 tokenCount = balanceOf(_owner);\n\n    if (tokenCount == 0) {\n      return new uint256[](0);\n    } else {\n      uint256[] memory result = new uint256[](tokenCount);\n      uint256 totalSlots = totalSupply();\n      uint256 resultIndex = 0;\n\n      uint256 slotId; // SponsorSlot id\n\n      for (slotId = 0; slotId <= totalSlots; slotId++) {\n          if (sponsorSlotToOwner[slotId] == _owner) {\n              result[resultIndex] = slotId;\n              resultIndex++;\n          }\n      }\n\n      return result;\n    }\n  }\n\n  /** TODO\n   * https://github.com/OpenZeppelin/openzeppelin-solidity/blob/master/contracts/token/ERC721/ERC721.sol\n   * @dev Sets or unsets the approval of a given operator\n   * An operator is allowed to transfer all tokens of the sender on their behalf\n   * @param to operator address to set the approval\n   * @param approved representing the status of the approval to be set\n   */\n  // function setApprovalForAll(address to, bool approved) public {\n  //     require(to != msg.sender);\n  //     _operatorApprovals[msg.sender][to] = approved;\n  //     emit ApprovalForAll(msg.sender, to, approved);\n  // }\n\n  /** TODO\n   * https://github.com/OpenZeppelin/openzeppelin-solidity/blob/master/contracts/token/ERC721/ERC721.sol\n   * @dev Gets the approved address for a token ID, or zero if no address set\n   * Reverts if the token ID does not exist.\n   * @param tokenId uint256 ID of the token to query the approval of\n   * @return address currently approved for the given token ID\n   */\n  // function getApproved(uint256 tokenId) public view returns (address) {\n      // require(_exists(tokenId));\n      // return _tokenApprovals[tokenId];\n  // }\n\n  /** TODO\n   * https://github.com/OpenZeppelin/openzeppelin-solidity/blob/master/contracts/token/ERC721/ERC721.sol\n   * @dev Safely transfers the ownership of a given token ID to another address\n   * If the target address is a contract, it must implement `onERC721Received`,\n   * which is called upon a safe transfer, and return the magic value\n   * `bytes4(keccak256(\"onERC721Received(address,address,uint256,bytes)\"))`; otherwise,\n   * the transfer is reverted.\n   * Requires the msg.sender to be the owner, approved, or operator\n   * @param from current owner of the token\n   * @param to address to receive the ownership of the given token ID\n   * @param tokenId uint256 ID of the token to be transferred\n   */\n  // function safeTransferFrom(address from, address to, uint256 tokenId) public {\n  //     safeTransferFrom(from, to, tokenId, \"\");\n  // }\n\n  /** TODO\n   * @dev Tells whether an operator is approved by a given owner\n   * @param owner owner address which you want to query the approval of\n   * @param operator operator address which you want to query the approval of\n   * @return bool whether the given operator is approved by the given owner\n   */\n  // function isApprovedForAll(address owner, address operator) public view returns (bool) {\n  //     return _operatorApprovals[owner][operator];\n  // }\n\n  /** TODO\n   * @dev Internal function to burn a specific token\n   * Reverts if the token does not exist\n   * @param tokenId uint256 ID of the token being burned\n   */\n  // function _burn(uint256 tokenId) internal {\n  //     _burn(ownerOf(tokenId), tokenId);\n  // }\n\n  /** TODO\n   * @dev Tells whether an operator is approved by a given owner\n   * @param owner owner address which you want to query the approval of\n   * @param operator operator address which you want to query the approval of\n   * @return bool whether the given operator is approved by the given owner\n   */\n  // function isApprovedForAll(address owner, address operator) public view returns (bool) {\n  //     return _operatorApprovals[owner][operator];\n  // }\n\n  // TODO - ?\n  // transferOwnership()\n  // 0x Dummy ERC721 ABI specifies this function\n  // Not sure if its really necessary:\n  // https://github.com/0xProject/0x-monorepo/blob/development/python-packages/contract_artifacts/src/zero_ex/contract_artifacts/artifacts/DummyERC721Token.json\n\n\n  /**\n   * Private Methods\n   */\n\n  function _createProperty(address _creator, string _propertyName) private returns (uint256) {\n\n    // TODO skip if property is already created\n    // TODO LATER Ensure there are no duplicate properties created\n    Property memory _newProp = Property({\n      owner: _creator,\n      propertyName: _propertyName\n    });\n    uint256 _propertyId = properties.push(_newProp) - 1;\n    emit PropertyCreated(_creator, _propertyId);\n\n    return _propertyId;\n  }\n\n  // Check if Property is available during time window specified by SponsorSlot\n  function _isValidSponsorSlot(\n    // address _creator,\n    // string _propertyName,\n    // uint32 _startTime,\n    // uint32 _endTime\n  ) private pure returns (bool) {\n\n    // TODO\n    // ensure start time is valid/ not duplicate\n    // ensure duration time is valid/ not overlapping w others\n    return true;\n  }\n\n  function _owns(address _claimant, uint256 _tokenId) internal view returns (bool) {\n    return (ownerOf(_tokenId) == _claimant);\n  }\n\n  function _approve(uint256 _tokenId, address _approved) internal {\n    sponsorSlotIdToApproved[_tokenId] = _approved;\n  }\n\n  // TODO: for demo purposes, we may want to disable this check\n  function _approvedFor(address _claimant, uint256 _tokenId) internal view returns (bool) {\n    return sponsorSlotIdToApproved[_tokenId] == _claimant;\n  }\n\n  function _transfer(address _from, address _to, uint256 _tokenId) internal {\n      // transfer ownership\n      sponsorSlotToOwner[_tokenId] = _to;\n      // decrement creator's SponsorSlot token count\n      ownerToSponsorSlotCount[_from]--;\n\n      if (_from != address(0)) {\n        // increment sponsors' SponsorSlot token count\n        ownerToSponsorSlotCount[_to]++;\n        // clear previous ownership approval\n        delete sponsorSlotIdToApproved[_tokenId];\n      }\n      // Emit the transfer event.\n      emit Transfer(_from, _to, _tokenId);\n  }\n\n  /**\n  * Withdraw from contract\n  */\n\n  // TODO LATER\n  // function withdraw() external onlyOwner {\n  // }\n\n}\n",
  "sourcePath": "/Users/lauren/github/0x-hackathon-contracts/contracts/Microsponsors.sol",
  "compiler": {
    "name": "solc",
    "version": "0.4.25+commit.59dbf8f1.Emscripten.clang"
  },
  "schemaVersion": "2.0.2",
  "updatedAt": "2019-02-04T21:13:12.036Z"
}