{
  "contractName": "Microsponsors",
  "abi": [
    {
      "constant": true,
      "inputs": [
        {
          "name": "",
          "type": "uint256"
        }
      ],
      "name": "sponsorSlots",
      "outputs": [
        {
          "name": "propertyId",
          "type": "uint256"
        },
        {
          "name": "owner",
          "type": "address"
        },
        {
          "name": "startTime",
          "type": "uint32"
        },
        {
          "name": "endTime",
          "type": "uint32"
        },
        {
          "name": "isSponsored",
          "type": "bool"
        }
      ],
      "payable": false,
      "stateMutability": "view",
      "type": "function"
    },
    {
      "constant": true,
      "inputs": [
        {
          "name": "",
          "type": "address"
        }
      ],
      "name": "ownerToSponsorSlotCount",
      "outputs": [
        {
          "name": "",
          "type": "uint256"
        }
      ],
      "payable": false,
      "stateMutability": "view",
      "type": "function"
    },
    {
      "constant": true,
      "inputs": [
        {
          "name": "",
          "type": "uint256"
        }
      ],
      "name": "sponsorSlotIdToApproved",
      "outputs": [
        {
          "name": "",
          "type": "address"
        }
      ],
      "payable": false,
      "stateMutability": "view",
      "type": "function"
    },
    {
      "constant": true,
      "inputs": [
        {
          "name": "",
          "type": "uint256"
        }
      ],
      "name": "propertyToCreator",
      "outputs": [
        {
          "name": "",
          "type": "address"
        }
      ],
      "payable": false,
      "stateMutability": "view",
      "type": "function"
    },
    {
      "constant": true,
      "inputs": [
        {
          "name": "",
          "type": "uint256"
        }
      ],
      "name": "sponsorSlotToSponsor",
      "outputs": [
        {
          "name": "",
          "type": "address"
        }
      ],
      "payable": false,
      "stateMutability": "view",
      "type": "function"
    },
    {
      "constant": true,
      "inputs": [
        {
          "name": "",
          "type": "uint256"
        }
      ],
      "name": "sponsorSlotToOwner",
      "outputs": [
        {
          "name": "",
          "type": "address"
        }
      ],
      "payable": false,
      "stateMutability": "view",
      "type": "function"
    },
    {
      "constant": true,
      "inputs": [
        {
          "name": "",
          "type": "uint256"
        }
      ],
      "name": "properties",
      "outputs": [
        {
          "name": "creator",
          "type": "address"
        },
        {
          "name": "description",
          "type": "string"
        }
      ],
      "payable": false,
      "stateMutability": "view",
      "type": "function"
    },
    {
      "inputs": [],
      "payable": false,
      "stateMutability": "nonpayable",
      "type": "constructor"
    },
    {
      "anonymous": false,
      "inputs": [
        {
          "indexed": false,
          "name": "propertyId",
          "type": "uint256"
        },
        {
          "indexed": false,
          "name": "creator",
          "type": "address"
        },
        {
          "indexed": false,
          "name": "desciption",
          "type": "string"
        }
      ],
      "name": "PropertyCreated",
      "type": "event"
    },
    {
      "anonymous": false,
      "inputs": [
        {
          "indexed": false,
          "name": "slotId",
          "type": "uint256"
        },
        {
          "indexed": false,
          "name": "propertyId",
          "type": "uint256"
        },
        {
          "indexed": false,
          "name": "creator",
          "type": "address"
        },
        {
          "indexed": false,
          "name": "startTime",
          "type": "uint32"
        },
        {
          "indexed": false,
          "name": "endTime",
          "type": "uint32"
        },
        {
          "indexed": false,
          "name": "isSponsored",
          "type": "bool"
        }
      ],
      "name": "SponsorSlotMinted",
      "type": "event"
    },
    {
      "anonymous": false,
      "inputs": [
        {
          "indexed": false,
          "name": "slotId",
          "type": "uint256"
        },
        {
          "indexed": false,
          "name": "propertyId",
          "type": "uint256"
        },
        {
          "indexed": false,
          "name": "creator",
          "type": "address"
        },
        {
          "indexed": false,
          "name": "sponsor",
          "type": "address"
        }
      ],
      "name": "SponsorSlotPurchased",
      "type": "event"
    },
    {
      "anonymous": false,
      "inputs": [
        {
          "indexed": false,
          "name": "from",
          "type": "address"
        },
        {
          "indexed": false,
          "name": "to",
          "type": "address"
        },
        {
          "indexed": false,
          "name": "tokenId",
          "type": "uint256"
        }
      ],
      "name": "Transfer",
      "type": "event"
    },
    {
      "anonymous": false,
      "inputs": [
        {
          "indexed": false,
          "name": "owner",
          "type": "address"
        },
        {
          "indexed": false,
          "name": "approved",
          "type": "address"
        },
        {
          "indexed": false,
          "name": "tokenId",
          "type": "uint256"
        }
      ],
      "name": "Approval",
      "type": "event"
    },
    {
      "constant": false,
      "inputs": [
        {
          "name": "_creator",
          "type": "address"
        },
        {
          "name": "_propertyDescription",
          "type": "string"
        },
        {
          "name": "_startTime",
          "type": "uint32"
        }
      ],
      "name": "mintSponsorSlot",
      "outputs": [
        {
          "name": "",
          "type": "uint256"
        }
      ],
      "payable": false,
      "stateMutability": "nonpayable",
      "type": "function"
    },
    {
      "constant": true,
      "inputs": [],
      "name": "totalSupply",
      "outputs": [
        {
          "name": "",
          "type": "uint256"
        }
      ],
      "payable": false,
      "stateMutability": "view",
      "type": "function"
    },
    {
      "constant": true,
      "inputs": [
        {
          "name": "_owner",
          "type": "address"
        }
      ],
      "name": "balanceOf",
      "outputs": [
        {
          "name": "count",
          "type": "uint256"
        }
      ],
      "payable": false,
      "stateMutability": "view",
      "type": "function"
    },
    {
      "constant": true,
      "inputs": [
        {
          "name": "_tokenId",
          "type": "uint256"
        }
      ],
      "name": "ownerOf",
      "outputs": [
        {
          "name": "owner",
          "type": "address"
        }
      ],
      "payable": false,
      "stateMutability": "view",
      "type": "function"
    },
    {
      "constant": false,
      "inputs": [
        {
          "name": "_to",
          "type": "address"
        },
        {
          "name": "_tokenId",
          "type": "uint256"
        }
      ],
      "name": "approve",
      "outputs": [],
      "payable": false,
      "stateMutability": "nonpayable",
      "type": "function"
    },
    {
      "constant": false,
      "inputs": [
        {
          "name": "_to",
          "type": "address"
        },
        {
          "name": "_tokenId",
          "type": "uint256"
        }
      ],
      "name": "transfer",
      "outputs": [],
      "payable": false,
      "stateMutability": "nonpayable",
      "type": "function"
    },
    {
      "constant": false,
      "inputs": [
        {
          "name": "_from",
          "type": "address"
        },
        {
          "name": "_to",
          "type": "address"
        },
        {
          "name": "_tokenId",
          "type": "uint256"
        }
      ],
      "name": "transferFrom",
      "outputs": [],
      "payable": false,
      "stateMutability": "nonpayable",
      "type": "function"
    },
    {
      "constant": true,
      "inputs": [
        {
          "name": "_owner",
          "type": "address"
        }
      ],
      "name": "tokensOfOwner",
      "outputs": [
        {
          "name": "tokenIds",
          "type": "uint256[]"
        }
      ],
      "payable": false,
      "stateMutability": "view",
      "type": "function"
    }
  ],
  "bytecode": "0x608060405234801561001057600080fd5b506117a1806100206000396000f3006080604052600436106100db576000357c0100000000000000000000000000000000000000000000000000000000900463ffffffff16806303b8d3ee146100e057806305f4f5891461018d578063095ea7b31461023257806318160ddd1461027f57806323b872dd146102aa5780632fab6363146103175780635b3f1fa81461036e5780636352211e146103db57806370a08231146104485780638462151c1461049f578063a9059cbb14610537578063bd20ac6c14610584578063ce5f8d65146105f1578063e4512b341461065e578063f7b10808146106cb575b600080fd5b3480156100ec57600080fd5b50610177600480360381019080803573ffffffffffffffffffffffffffffffffffffffff169060200190929190803590602001908201803590602001908080601f0160208091040260200160405190810160405280939291908181526020018383808284378201915050505050509192919290803563ffffffff1690602001909291905050506107a4565b6040518082815260200191505060405180910390f35b34801561019957600080fd5b506101b860048036038101908080359060200190929190505050610a65565b604051808681526020018573ffffffffffffffffffffffffffffffffffffffff1673ffffffffffffffffffffffffffffffffffffffff1681526020018463ffffffff1663ffffffff1681526020018363ffffffff1663ffffffff168152602001821515151581526020019550505050505060405180910390f35b34801561023e57600080fd5b5061027d600480360381019080803573ffffffffffffffffffffffffffffffffffffffff16906020019092919080359060200190929190505050610af7565b005b34801561028b57600080fd5b50610294610bb9565b6040518082815260200191505060405180910390f35b3480156102b657600080fd5b50610315600480360381019080803573ffffffffffffffffffffffffffffffffffffffff169060200190929190803573ffffffffffffffffffffffffffffffffffffffff16906020019092919080359060200190929190505050610bc5565b005b34801561032357600080fd5b50610358600480360381019080803573ffffffffffffffffffffffffffffffffffffffff169060200190929190505050610c76565b6040518082815260200191505060405180910390f35b34801561037a57600080fd5b5061039960048036038101908080359060200190929190505050610c8e565b604051808273ffffffffffffffffffffffffffffffffffffffff1673ffffffffffffffffffffffffffffffffffffffff16815260200191505060405180910390f35b3480156103e757600080fd5b5061040660048036038101908080359060200190929190505050610cc1565b604051808273ffffffffffffffffffffffffffffffffffffffff1673ffffffffffffffffffffffffffffffffffffffff16815260200191505060405180910390f35b34801561045457600080fd5b50610489600480360381019080803573ffffffffffffffffffffffffffffffffffffffff169060200190929190505050610d3a565b6040518082815260200191505060405180910390f35b3480156104ab57600080fd5b506104e0600480360381019080803573ffffffffffffffffffffffffffffffffffffffff169060200190929190505050610d83565b6040518080602001828103825283818151815260200191508051906020019060200280838360005b83811015610523578082015181840152602081019050610508565b505050509050019250505060405180910390f35b34801561054357600080fd5b50610582600480360381019080803573ffffffffffffffffffffffffffffffffffffffff16906020019092919080359060200190929190505050610ed0565b005b34801561059057600080fd5b506105af60048036038101908080359060200190929190505050610f6b565b604051808273ffffffffffffffffffffffffffffffffffffffff1673ffffffffffffffffffffffffffffffffffffffff16815260200191505060405180910390f35b3480156105fd57600080fd5b5061061c60048036038101908080359060200190929190505050610f9e565b604051808273ffffffffffffffffffffffffffffffffffffffff1673ffffffffffffffffffffffffffffffffffffffff16815260200191505060405180910390f35b34801561066a57600080fd5b5061068960048036038101908080359060200190929190505050610fd1565b604051808273ffffffffffffffffffffffffffffffffffffffff1673ffffffffffffffffffffffffffffffffffffffff16815260200191505060405180910390f35b3480156106d757600080fd5b506106f660048036038101908080359060200190929190505050611004565b604051808373ffffffffffffffffffffffffffffffffffffffff1673ffffffffffffffffffffffffffffffffffffffff16815260200180602001828103825283818151815260200191508051906020019080838360005b8381101561076857808201518184015260208101905061074d565b50505050905090810190601f1680156107955780820380516001836020036101000a031916815260200191505b50935050505060405180910390f35b6000806000806107b261164c565b60006107be89896110ef565b94506102589350838701925060a0604051908101604052808681526020018a73ffffffffffffffffffffffffffffffffffffffff1681526020018863ffffffff1681526020018463ffffffff1681526020016000151581525091506001600083908060018154018082558091505090600182039060005260206000209060020201600090919290919091506000820151816000015560208201518160010160006101000a81548173ffffffffffffffffffffffffffffffffffffffff021916908373ffffffffffffffffffffffffffffffffffffffff16021790555060408201518160010160146101000a81548163ffffffff021916908363ffffffff16021790555060608201518160010160186101000a81548163ffffffff021916908363ffffffff160217905550608082015181600101601c6101000a81548160ff02191690831515021790555050500390507f29585858d3f2d8b299c2a1fb5789c8990fbb653c875c28c06ae2ea534146ed1a81868b8a876000604051808781526020018681526020018573ffffffffffffffffffffffffffffffffffffffff1673ffffffffffffffffffffffffffffffffffffffff1681526020018463ffffffff1663ffffffff1681526020018363ffffffff1663ffffffff16815260200182151515158152602001965050505050505060405180910390a1886003600083815260200190815260200160002060006101000a81548173ffffffffffffffffffffffffffffffffffffffff021916908373ffffffffffffffffffffffffffffffffffffffff160217905550600460008a73ffffffffffffffffffffffffffffffffffffffff1673ffffffffffffffffffffffffffffffffffffffff1681526020019081526020016000206000815480929190600101919050555080955050505050509392505050565b600081815481101515610a7457fe5b90600052602060002090600202016000915090508060000154908060010160009054906101000a900473ffffffffffffffffffffffffffffffffffffffff16908060010160149054906101000a900463ffffffff16908060010160189054906101000a900463ffffffff169080600101601c9054906101000a900460ff16905085565b610b0133826112f5565b1515610b0c57600080fd5b610b168183611336565b7f8c5be1e5ebec7d5bd14f71427d1e84f3dd0314c0f7b2291e5b200ac8c7c3b925338383604051808473ffffffffffffffffffffffffffffffffffffffff1673ffffffffffffffffffffffffffffffffffffffff1681526020018373ffffffffffffffffffffffffffffffffffffffff1673ffffffffffffffffffffffffffffffffffffffff168152602001828152602001935050505060405180910390a15050565b60008080549050905090565b600073ffffffffffffffffffffffffffffffffffffffff168273ffffffffffffffffffffffffffffffffffffffff1614151515610c0157600080fd5b3073ffffffffffffffffffffffffffffffffffffffff168273ffffffffffffffffffffffffffffffffffffffff1614151515610c3c57600080fd5b610c46338261138c565b1515610c5157600080fd5b610c5b83826112f5565b1515610c6657600080fd5b610c718383836113f8565b505050565b60046020528060005260406000206000915090505481565b60066020528060005260406000206000915054906101000a900473ffffffffffffffffffffffffffffffffffffffff1681565b60006003600083815260200190815260200160002060009054906101000a900473ffffffffffffffffffffffffffffffffffffffff169050600073ffffffffffffffffffffffffffffffffffffffff168173ffffffffffffffffffffffffffffffffffffffff1614151515610d3557600080fd5b919050565b6000600460008373ffffffffffffffffffffffffffffffffffffffff1673ffffffffffffffffffffffffffffffffffffffff168152602001908152602001600020549050919050565b6060600060606000806000610d9787610d3a565b94506000851415610dda576000604051908082528060200260200182016040528015610dd25781602001602082028038833980820191505090505b509550610ec6565b84604051908082528060200260200182016040528015610e095781602001602082028038833980820191505090505b509350610e14610bb9565b925060009150600090505b8281111515610ec2578673ffffffffffffffffffffffffffffffffffffffff166003600083815260200190815260200160002060009054906101000a900473ffffffffffffffffffffffffffffffffffffffff1673ffffffffffffffffffffffffffffffffffffffff161415610eb557808483815181101515610e9e57fe5b906020019060200201818152505081806001019250505b8080600101915050610e1f565b8395505b5050505050919050565b600073ffffffffffffffffffffffffffffffffffffffff168273ffffffffffffffffffffffffffffffffffffffff1614151515610f0c57600080fd5b3073ffffffffffffffffffffffffffffffffffffffff168273ffffffffffffffffffffffffffffffffffffffff1614151515610f4757600080fd5b610f5133826112f5565b1515610f5c57600080fd5b610f673383836113f8565b5050565b60026020528060005260406000206000915054906101000a900473ffffffffffffffffffffffffffffffffffffffff1681565b60056020528060005260406000206000915054906101000a900473ffffffffffffffffffffffffffffffffffffffff1681565b60036020528060005260406000206000915054906101000a900473ffffffffffffffffffffffffffffffffffffffff1681565b60018181548110151561101357fe5b90600052602060002090600202016000915090508060000160009054906101000a900473ffffffffffffffffffffffffffffffffffffffff1690806001018054600181600116156101000203166002900480601f0160208091040260200160405190810160405280929190818152602001828054600181600116156101000203166002900480156110e55780601f106110ba576101008083540402835291602001916110e5565b820191906000526020600020905b8154815290600101906020018083116110c857829003601f168201915b5050505050905082565b60006110f96116a0565b600060408051908101604052808673ffffffffffffffffffffffffffffffffffffffff168152602001858152509150600180839080600181540180825580915050906001820390600052602060002090600202016000909192909190915060008201518160000160006101000a81548173ffffffffffffffffffffffffffffffffffffffff021916908373ffffffffffffffffffffffffffffffffffffffff16021790555060208201518160010190805190602001906111ba9291906116d0565b5050500390507fdc1c922a553cc495352bcdbe90335b925277134a1e63f61e7a26e5f414364c35818686604051808481526020018373ffffffffffffffffffffffffffffffffffffffff1673ffffffffffffffffffffffffffffffffffffffff16815260200180602001828103825283818151815260200191508051906020019080838360005b8381101561125c578082015181840152602081019050611241565b50505050905090810190601f1680156112895780820380516001836020036101000a031916815260200191505b5094505050505060405180910390a1846002600083815260200190815260200160002060006101000a81548173ffffffffffffffffffffffffffffffffffffffff021916908373ffffffffffffffffffffffffffffffffffffffff160217905550809250505092915050565b60008273ffffffffffffffffffffffffffffffffffffffff1661131783610cc1565b73ffffffffffffffffffffffffffffffffffffffff1614905092915050565b806006600084815260200190815260200160002060006101000a81548173ffffffffffffffffffffffffffffffffffffffff021916908373ffffffffffffffffffffffffffffffffffffffff1602179055505050565b60008273ffffffffffffffffffffffffffffffffffffffff166006600084815260200190815260200160002060009054906101000a900473ffffffffffffffffffffffffffffffffffffffff1673ffffffffffffffffffffffffffffffffffffffff1614905092915050565b816003600083815260200190815260200160002060006101000a81548173ffffffffffffffffffffffffffffffffffffffff021916908373ffffffffffffffffffffffffffffffffffffffff160217905550600460008473ffffffffffffffffffffffffffffffffffffffff1673ffffffffffffffffffffffffffffffffffffffff1681526020019081526020016000206000815480929190600190039190505550600073ffffffffffffffffffffffffffffffffffffffff168373ffffffffffffffffffffffffffffffffffffffff161415156115a857600460008373ffffffffffffffffffffffffffffffffffffffff1673ffffffffffffffffffffffffffffffffffffffff168152602001908152602001600020600081548092919060010191905055506006600082815260200190815260200160002060006101000a81549073ffffffffffffffffffffffffffffffffffffffff0219169055816005600083815260200190815260200160002060006101000a81548173ffffffffffffffffffffffffffffffffffffffff021916908373ffffffffffffffffffffffffffffffffffffffff1602179055505b7fddf252ad1be2c89b69c2b068fc378daa952ba7f163c4a11628f55a4df523b3ef838383604051808473ffffffffffffffffffffffffffffffffffffffff1673ffffffffffffffffffffffffffffffffffffffff1681526020018373ffffffffffffffffffffffffffffffffffffffff1673ffffffffffffffffffffffffffffffffffffffff168152602001828152602001935050505060405180910390a1505050565b60a06040519081016040528060008152602001600073ffffffffffffffffffffffffffffffffffffffff168152602001600063ffffffff168152602001600063ffffffff1681526020016000151581525090565b6040805190810160405280600073ffffffffffffffffffffffffffffffffffffffff168152602001606081525090565b828054600181600116156101000203166002900490600052602060002090601f016020900481019282601f1061171157805160ff191683800117855561173f565b8280016001018555821561173f579182015b8281111561173e578251825591602001919060010190611723565b5b50905061174c9190611750565b5090565b61177291905b8082111561176e576000816000905550600101611756565b5090565b905600a165627a7a723058204be7a767d127498c783c6ab7afdde812c9bedae936539d619680d6a469c2a3610029",
  "source": "// Microsponsors.io - DEMO ONLY!\n// This demo uses ERC721 NFTs as a marketplace for sponsorships of content creators.\n// This is a rough draft for demo purposes only (not nearly production-ready!).\n\npragma solidity ^0.4.24;\n\nimport \"./ERC721.sol\";\n// TODO LATER:\n// import \"./Ownable.sol\";\n// import \"./Safemath.sol\";\n\n\ncontract Microsponsors is ERC721 {\n\n  /**\n  * Events emitted\n  */\n  event PropertyCreated(uint256 propertyId, address creator, string desciption);\n  event SponsorSlotMinted(uint256 slotId, uint256 propertyId, address creator, uint32 startTime, uint32 endTime, bool isSponsored);\n  event SponsorSlotPurchased(uint256 slotId, uint256 propertyId, address creator, address sponsor);\n\n\n  /**\n   * Data\n   */\n\n  // The Microsponsors ERC721 Token:\n  // A SponsorSlot is a window of time during which a Property can be\n  // purchased by a sponsor\n  struct SponsorSlot {\n    uint256 propertyId; // maps to Property id\n    address owner; // creator of slot; defaults to content creator when minted\n    uint32 startTime; // timestamp for when sponsorship of a Property begins\n    uint32 endTime; // max timestamp of sponsorship (when it ends)\n    bool isSponsored; // defaults to false when minted\n  }\n\n  struct Property {\n    address creator; // the content creator who will be sponsored\n    string description; // website or property that contains the SponsorSlot (ex: \"microsponsors.io-banner-north\")\n  }\n\n  SponsorSlot[] public sponsorSlots;\n  Property[] public properties;\n\n  mapping (uint256 => address) public propertyToCreator;\n  mapping (uint256 => address) public sponsorSlotToOwner;\n  mapping (address => uint256) public ownerToSponsorSlotCount;\n  mapping (uint256 => address) public sponsorSlotToSponsor;\n\n  // Mapping from SponsorSlot ids to an address that has been approved to call\n  // transferFrom(). Each  can only have one approved address for transfer\n  // at any time.\n  mapping (uint256 => address) public sponsorSlotIdToApproved;\n\n\n  /**\n  * Init contract\n  */\n\n  constructor() public {}\n\n\n  /**\n  * Primary public methods\n  */\n\n  /**\n   * TODO: optimize minting process so that it does NOT cost content creators\n   * extra gas to mint tokenized sponsor slot(s).\n   * Can do this by reliably generating SponsorSlots with a formula\n   * and minting (storing) in contract ONLY when the token is purchased.\n   */\n\n  /**\n   * Mint the new SponsorSlot NFT, assign its ownership to content creator\n   * Which will then be transfered to the sponsor when they purchase it.\n   *\n   * TODO LATER: let anyone mint during demo, but prod version should restrict\n   * minting to msg.sender by removing _creator param and setting\n   * SponsorSlot.owner to msg.sender\n   */\n  function mintSponsorSlot(\n    address _creator,\n    string _propertyDescription,\n    uint32 _startTime\n  ) public returns (uint256) {\n\n    // TODO LATER enforce authorization per user onboarding:\n    // require(isAuthorized(msg.sender));\n\n    uint256 _propertyId = _createProperty(_creator, _propertyDescription);\n\n    // TODO LATER duration is hard-coded to 10 min slots for demo purposes only;\n    // these will obviously be longer/ more varied and schedule-able in production\n    uint32 _duration = 10 minutes;\n    uint32 _endTime = uint32(_startTime + _duration);\n\n    // TODO\n    // require(_isValidSponsorSlot(_creator, _propertyDescription, _startTime, _endTime));\n\n    SponsorSlot memory _sponsorSlot = SponsorSlot({\n      propertyId: uint256(_propertyId),\n      owner: _creator,\n      startTime: uint32(_startTime),\n      endTime: uint32(_endTime),\n      isSponsored: false\n    });\n\n    uint256 id = sponsorSlots.push(_sponsorSlot) - 1;\n    emit SponsorSlotMinted(id, _propertyId, _creator, _startTime, _endTime, false);\n    sponsorSlotToOwner[id] = _creator;\n    ownerToSponsorSlotCount[_creator]++;\n\n    return id;\n  }\n\n  // TODO:\n  // function purchaseSponsorSlot() public payable {\n    // TODO LATER enforce authorization per user onboarding:\n    // require(isAuthorized(msg.sender));\n\n    // sponsorSlotToCreator[id] = msg.sender;\n\n  // }\n\n\n  /**\n   * ERC721 methods\n   */\n  function totalSupply() public view returns (uint) {\n    return sponsorSlots.length;\n  }\n\n  function balanceOf(address _owner) public view returns (uint256 count) {\n    return ownerToSponsorSlotCount[_owner];\n  }\n\n  function ownerOf(uint256 _tokenId) public view returns (address owner) {\n    owner = sponsorSlotToOwner[_tokenId];\n    require(owner != address(0));\n  }\n\n  // Creator approves transfer of the token (a SponsorSlot) to the sponsor\n  // Bidding and order-matching takes place off-chain, so the slot will only\n  // change hands once, from creator to sponsor.\n  function approve(address _to, uint256 _tokenId) external {\n    require(_owns(msg.sender, _tokenId));\n    _approve(_tokenId, _to);\n    emit Approval(msg.sender, _to, _tokenId);\n  }\n\n  // Creators may transfer their own SponsorSlot tokens to another address.\n  function transfer(address _to, uint256 _tokenId) external {\n    // Safety check to prevent against an unexpected 0x0 default.\n    require(_to != address(0));\n    // Disallow transfers to this contract to prevent accidental misuse.\n    // The contract should never own any tokenized SponsorSlots\n    require(_to != address(this));\n    // Only creators can transfer tokenized SponsorSlots to sponsors.\n    require(_owns(msg.sender, _tokenId));\n    // Reassign ownership, clear pending approvals, emit Transfer event.\n    _transfer(msg.sender, _to, _tokenId);\n  }\n\n  /// Transfer a SponsorSlot token owned by another address, for which the\n  // calling address has previously been granted transfer approval by the owner.\n  function transferFrom(address _from, address _to, uint256 _tokenId) external {\n    // Safety check to prevent against an unexpected 0x0 default.\n    require(_to != address(0));\n    // Disallow transfers to this contract to prevent accidental misuse.\n    require(_to != address(this));\n    // Check for approval and valid ownership\n    require(_approvedFor(msg.sender, _tokenId));\n    require(_owns(_from, _tokenId));\n\n    // Reassign ownership (also clears pending approvals and emits Transfer event).\n    _transfer(_from, _to, _tokenId);\n  }\n\n  function tokensOfOwner(address _owner) external view returns (uint256[] tokenIds) {\n    uint256 tokenCount = balanceOf(_owner);\n\n    if (tokenCount == 0) {\n      return new uint256[](0);\n    } else {\n      uint256[] memory result = new uint256[](tokenCount);\n      uint256 totalSlots = totalSupply();\n      uint256 resultIndex = 0;\n\n      uint256 slotId; // SponsorSlot id\n\n      for (slotId = 0; slotId <= totalSlots; slotId++) {\n          if (sponsorSlotToOwner[slotId] == _owner) {\n              result[resultIndex] = slotId;\n              resultIndex++;\n          }\n      }\n\n      return result;\n    }\n\n  }\n\n  /**\n   * Private Methods\n   */\n\n  function _createProperty(\n    address _creator,\n    string _description\n  ) private returns (uint256) {\n\n    Property memory _property = Property({\n      creator: _creator,\n      description: _description\n    });\n\n    // TODO LATER Ensure there are no duplicate properties created\n    uint256 propertyId = properties.push(_property) - 1;\n    emit PropertyCreated(propertyId, _creator, _description);\n    propertyToCreator[propertyId] = _creator;\n\n    return propertyId;\n  }\n\n  // Check if Property is available during time window specified by SponsorSlot\n  function _isValidSponsorSlot(\n    // address _creator,\n    // string _propertyDescription,\n    // uint32 _startTime,\n    // uint32 _endTime\n  ) private pure returns (bool) {\n\n    // TODO\n    // ensure start time is valid/ not duplicate\n    // ensure duration time is valid/ not overlapping w others\n    return true;\n  }\n\n  function _owns(address _claimant, uint256 _tokenId) internal view returns (bool) {\n    return (ownerOf(_tokenId) == _claimant);\n  }\n\n  function _approve(uint256 _tokenId, address _approved) internal {\n    sponsorSlotIdToApproved[_tokenId] = _approved;\n  }\n\n  // TODO: for demo purposes, we may want to disable this check\n  function _approvedFor(address _claimant, uint256 _tokenId) internal view returns (bool) {\n    return sponsorSlotIdToApproved[_tokenId] == _claimant;\n  }\n\n  function _transfer(address _from, address _to, uint256 _tokenId) internal {\n      // transfer ownership\n      sponsorSlotToOwner[_tokenId] = _to;\n      // decrement creator's SponsorSlot token count\n      ownerToSponsorSlotCount[_from]--;\n\n      if (_from != address(0)) {\n        // increment sponsors' SponsorSlot token count\n        ownerToSponsorSlotCount[_to]++;\n        // clear previous ownership approval\n        delete sponsorSlotIdToApproved[_tokenId];\n        // map sponsor slot to sponsor\n        sponsorSlotToSponsor[_tokenId] = _to;\n      }\n      // Emit the transfer event.\n      emit Transfer(_from, _to, _tokenId);\n  }\n\n  /**\n  * Withdraw from contract\n  */\n\n  // function withdraw() external onlyOwner {\n  // }\n}\n",
  "sourcePath": "/Users/lauren/github/0x-hackathon-contracts/contracts/Microsponsors.sol",
  "compiler": {
    "name": "solc",
    "version": "0.4.25+commit.59dbf8f1.Emscripten.clang"
  },
  "schemaVersion": "2.0.2",
  "updatedAt": "2019-01-31T22:48:37.443Z"
}