{
  "contractName": "Microsponsors",
  "abi": [
    {
      "constant": true,
      "inputs": [
        {
          "name": "",
          "type": "uint256"
        }
      ],
      "name": "sponsorSlots",
      "outputs": [
        {
          "name": "id",
          "type": "uint256"
        },
        {
          "name": "propertyId",
          "type": "uint256"
        },
        {
          "name": "owner",
          "type": "address"
        },
        {
          "name": "startTime",
          "type": "uint32"
        },
        {
          "name": "endTime",
          "type": "uint32"
        },
        {
          "name": "isSponsored",
          "type": "bool"
        }
      ],
      "payable": false,
      "stateMutability": "view",
      "type": "function"
    },
    {
      "constant": true,
      "inputs": [],
      "name": "name",
      "outputs": [
        {
          "name": "",
          "type": "string"
        }
      ],
      "payable": false,
      "stateMutability": "view",
      "type": "function"
    },
    {
      "constant": true,
      "inputs": [
        {
          "name": "",
          "type": "address"
        }
      ],
      "name": "ownerToSponsorSlotCount",
      "outputs": [
        {
          "name": "",
          "type": "uint256"
        }
      ],
      "payable": false,
      "stateMutability": "view",
      "type": "function"
    },
    {
      "constant": true,
      "inputs": [
        {
          "name": "",
          "type": "uint256"
        }
      ],
      "name": "sponsorSlotToApproved",
      "outputs": [
        {
          "name": "",
          "type": "address"
        }
      ],
      "payable": false,
      "stateMutability": "view",
      "type": "function"
    },
    {
      "constant": true,
      "inputs": [],
      "name": "symbol",
      "outputs": [
        {
          "name": "",
          "type": "string"
        }
      ],
      "payable": false,
      "stateMutability": "view",
      "type": "function"
    },
    {
      "constant": true,
      "inputs": [
        {
          "name": "",
          "type": "uint256"
        }
      ],
      "name": "propertyToCreator",
      "outputs": [
        {
          "name": "",
          "type": "address"
        }
      ],
      "payable": false,
      "stateMutability": "view",
      "type": "function"
    },
    {
      "constant": true,
      "inputs": [
        {
          "name": "",
          "type": "uint256"
        }
      ],
      "name": "sponsorSlotToSponsor",
      "outputs": [
        {
          "name": "",
          "type": "address"
        }
      ],
      "payable": false,
      "stateMutability": "view",
      "type": "function"
    },
    {
      "constant": true,
      "inputs": [
        {
          "name": "",
          "type": "uint256"
        }
      ],
      "name": "sponsorSlotToOwner",
      "outputs": [
        {
          "name": "",
          "type": "address"
        }
      ],
      "payable": false,
      "stateMutability": "view",
      "type": "function"
    },
    {
      "constant": true,
      "inputs": [
        {
          "name": "",
          "type": "uint256"
        }
      ],
      "name": "properties",
      "outputs": [
        {
          "name": "creator",
          "type": "address"
        },
        {
          "name": "description",
          "type": "string"
        }
      ],
      "payable": false,
      "stateMutability": "view",
      "type": "function"
    },
    {
      "inputs": [],
      "payable": false,
      "stateMutability": "nonpayable",
      "type": "constructor"
    },
    {
      "anonymous": false,
      "inputs": [
        {
          "indexed": false,
          "name": "propertyId",
          "type": "uint256"
        },
        {
          "indexed": false,
          "name": "creator",
          "type": "address"
        },
        {
          "indexed": false,
          "name": "desciption",
          "type": "string"
        }
      ],
      "name": "PropertyCreated",
      "type": "event"
    },
    {
      "anonymous": false,
      "inputs": [
        {
          "indexed": false,
          "name": "from",
          "type": "address"
        },
        {
          "indexed": false,
          "name": "to",
          "type": "address"
        },
        {
          "indexed": false,
          "name": "tokenId",
          "type": "uint256"
        }
      ],
      "name": "Transfer",
      "type": "event"
    },
    {
      "anonymous": false,
      "inputs": [
        {
          "indexed": false,
          "name": "owner",
          "type": "address"
        },
        {
          "indexed": false,
          "name": "approved",
          "type": "address"
        },
        {
          "indexed": false,
          "name": "tokenId",
          "type": "uint256"
        }
      ],
      "name": "Approval",
      "type": "event"
    },
    {
      "constant": false,
      "inputs": [
        {
          "name": "_creator",
          "type": "address"
        },
        {
          "name": "_propertyDescription",
          "type": "string"
        },
        {
          "name": "_startTime",
          "type": "uint32"
        }
      ],
      "name": "mint",
      "outputs": [
        {
          "name": "",
          "type": "uint256"
        }
      ],
      "payable": false,
      "stateMutability": "nonpayable",
      "type": "function"
    },
    {
      "constant": true,
      "inputs": [
        {
          "name": "_propertyId",
          "type": "uint256"
        },
        {
          "name": "_startTime",
          "type": "uint32"
        },
        {
          "name": "_endTime",
          "type": "uint32"
        }
      ],
      "name": "generateTokenId",
      "outputs": [
        {
          "name": "",
          "type": "uint256"
        }
      ],
      "payable": false,
      "stateMutability": "pure",
      "type": "function"
    },
    {
      "constant": true,
      "inputs": [],
      "name": "totalSupply",
      "outputs": [
        {
          "name": "",
          "type": "uint256"
        }
      ],
      "payable": false,
      "stateMutability": "view",
      "type": "function"
    },
    {
      "constant": true,
      "inputs": [
        {
          "name": "_owner",
          "type": "address"
        }
      ],
      "name": "balanceOf",
      "outputs": [
        {
          "name": "count",
          "type": "uint256"
        }
      ],
      "payable": false,
      "stateMutability": "view",
      "type": "function"
    },
    {
      "constant": true,
      "inputs": [
        {
          "name": "_tokenId",
          "type": "uint256"
        }
      ],
      "name": "ownerOf",
      "outputs": [
        {
          "name": "owner",
          "type": "address"
        }
      ],
      "payable": false,
      "stateMutability": "view",
      "type": "function"
    },
    {
      "constant": false,
      "inputs": [
        {
          "name": "_to",
          "type": "address"
        },
        {
          "name": "_tokenId",
          "type": "uint256"
        }
      ],
      "name": "approve",
      "outputs": [],
      "payable": false,
      "stateMutability": "nonpayable",
      "type": "function"
    },
    {
      "constant": false,
      "inputs": [
        {
          "name": "_to",
          "type": "address"
        },
        {
          "name": "_tokenId",
          "type": "uint256"
        }
      ],
      "name": "transfer",
      "outputs": [],
      "payable": false,
      "stateMutability": "nonpayable",
      "type": "function"
    },
    {
      "constant": false,
      "inputs": [
        {
          "name": "_from",
          "type": "address"
        },
        {
          "name": "_to",
          "type": "address"
        },
        {
          "name": "_tokenId",
          "type": "uint256"
        }
      ],
      "name": "transferFrom",
      "outputs": [],
      "payable": false,
      "stateMutability": "nonpayable",
      "type": "function"
    },
    {
      "constant": true,
      "inputs": [
        {
          "name": "_owner",
          "type": "address"
        }
      ],
      "name": "tokensOfOwner",
      "outputs": [
        {
          "name": "tokenIds",
          "type": "uint256[]"
        }
      ],
      "payable": false,
      "stateMutability": "view",
      "type": "function"
    }
  ],
  "bytecode": "0x608060405234801561001057600080fd5b50611a2b806100206000396000f3006080604052600436106100fc576000357c0100000000000000000000000000000000000000000000000000000000900463ffffffff16806305f4f5891461010157806306fdde03146101ad578063095ea7b31461023d57806318160ddd1461028a57806323b872dd146102b55780632fab63631461032257806340a876de146103795780635c335e84146104265780636352211e1461048757806370a08231146104f45780638462151c1461054b57806394d954d7146105e357806395d89b4114610650578063a9059cbb146106e0578063bd20ac6c1461072d578063ce5f8d651461079a578063e4512b3414610807578063f7b1080814610874575b600080fd5b34801561010d57600080fd5b5061012c6004803603810190808035906020019092919050505061094d565b604051808781526020018681526020018573ffffffffffffffffffffffffffffffffffffffff1673ffffffffffffffffffffffffffffffffffffffff1681526020018463ffffffff1663ffffffff1681526020018363ffffffff1663ffffffff16815260200182151515158152602001965050505050505060405180910390f35b3480156101b957600080fd5b506101c26109e5565b6040518080602001828103825283818151815260200191508051906020019080838360005b838110156102025780820151818401526020810190506101e7565b50505050905090810190601f16801561022f5780820380516001836020036101000a031916815260200191505b509250505060405180910390f35b34801561024957600080fd5b50610288600480360381019080803573ffffffffffffffffffffffffffffffffffffffff16906020019092919080359060200190929190505050610a1e565b005b34801561029657600080fd5b5061029f610ae0565b6040518082815260200191505060405180910390f35b3480156102c157600080fd5b50610320600480360381019080803573ffffffffffffffffffffffffffffffffffffffff169060200190929190803573ffffffffffffffffffffffffffffffffffffffff16906020019092919080359060200190929190505050610aec565b005b34801561032e57600080fd5b50610363600480360381019080803573ffffffffffffffffffffffffffffffffffffffff169060200190929190505050610b9d565b6040518082815260200191505060405180910390f35b34801561038557600080fd5b50610410600480360381019080803573ffffffffffffffffffffffffffffffffffffffff169060200190929190803590602001908201803590602001908080601f0160208091040260200160405190810160405280939291908181526020018383808284378201915050505050509192919290803563ffffffff169060200190929190505050610bb5565b6040518082815260200191505060405180910390f35b34801561043257600080fd5b5061047160048036038101908080359060200190929190803563ffffffff169060200190929190803563ffffffff169060200190929190505050610e87565b6040518082815260200191505060405180910390f35b34801561049357600080fd5b506104b260048036038101908080359060200190929190505050610ea8565b604051808273ffffffffffffffffffffffffffffffffffffffff1673ffffffffffffffffffffffffffffffffffffffff16815260200191505060405180910390f35b34801561050057600080fd5b50610535600480360381019080803573ffffffffffffffffffffffffffffffffffffffff169060200190929190505050610f21565b6040518082815260200191505060405180910390f35b34801561055757600080fd5b5061058c600480360381019080803573ffffffffffffffffffffffffffffffffffffffff169060200190929190505050610f6a565b6040518080602001828103825283818151815260200191508051906020019060200280838360005b838110156105cf5780820151818401526020810190506105b4565b505050509050019250505060405180910390f35b3480156105ef57600080fd5b5061060e600480360381019080803590602001909291905050506110e7565b604051808273ffffffffffffffffffffffffffffffffffffffff1673ffffffffffffffffffffffffffffffffffffffff16815260200191505060405180910390f35b34801561065c57600080fd5b5061066561111a565b6040518080602001828103825283818151815260200191508051906020019080838360005b838110156106a557808201518184015260208101905061068a565b50505050905090810190601f1680156106d25780820380516001836020036101000a031916815260200191505b509250505060405180910390f35b3480156106ec57600080fd5b5061072b600480360381019080803573ffffffffffffffffffffffffffffffffffffffff16906020019092919080359060200190929190505050611153565b005b34801561073957600080fd5b50610758600480360381019080803590602001909291905050506111ee565b604051808273ffffffffffffffffffffffffffffffffffffffff1673ffffffffffffffffffffffffffffffffffffffff16815260200191505060405180910390f35b3480156107a657600080fd5b506107c560048036038101908080359060200190929190505050611221565b604051808273ffffffffffffffffffffffffffffffffffffffff1673ffffffffffffffffffffffffffffffffffffffff16815260200191505060405180910390f35b34801561081357600080fd5b5061083260048036038101908080359060200190929190505050611254565b604051808273ffffffffffffffffffffffffffffffffffffffff1673ffffffffffffffffffffffffffffffffffffffff16815260200191505060405180910390f35b34801561088057600080fd5b5061089f60048036038101908080359060200190929190505050611287565b604051808373ffffffffffffffffffffffffffffffffffffffff1673ffffffffffffffffffffffffffffffffffffffff16815260200180602001828103825283818151815260200191508051906020019080838360005b838110156109115780820151818401526020810190506108f6565b50505050905090810190601f16801561093e5780820380516001836020036101000a031916815260200191505b50935050505060405180910390f35b60008181548110151561095c57fe5b90600052602060002090600302016000915090508060000154908060010154908060020160009054906101000a900473ffffffffffffffffffffffffffffffffffffffff16908060020160149054906101000a900463ffffffff16908060020160189054906101000a900463ffffffff169080600201601c9054906101000a900460ff16905086565b6040805190810160405280600d81526020017f4d6963726f73706f6e736f72730000000000000000000000000000000000000081525081565b610a283382611372565b1515610a3357600080fd5b610a3d81836113b3565b7f8c5be1e5ebec7d5bd14f71427d1e84f3dd0314c0f7b2291e5b200ac8c7c3b925338383604051808473ffffffffffffffffffffffffffffffffffffffff1673ffffffffffffffffffffffffffffffffffffffff1681526020018373ffffffffffffffffffffffffffffffffffffffff1673ffffffffffffffffffffffffffffffffffffffff168152602001828152602001935050505060405180910390a15050565b60008080549050905090565b600073ffffffffffffffffffffffffffffffffffffffff168273ffffffffffffffffffffffffffffffffffffffff1614151515610b2857600080fd5b3073ffffffffffffffffffffffffffffffffffffffff168273ffffffffffffffffffffffffffffffffffffffff1614151515610b6357600080fd5b610b6d3382611409565b1515610b7857600080fd5b610b828382611372565b1515610b8d57600080fd5b610b98838383611475565b505050565b60046020528060005260406000206000915090505481565b6000806000806000610bc56118cf565b610bcf89896116c9565b945061384093508387019250610be6858885610e87565b915060c0604051908101604052808381526020018681526020018a73ffffffffffffffffffffffffffffffffffffffff1681526020018863ffffffff1681526020018463ffffffff16815260200160001515815250905060008190806001815401808255809150509060018203906000526020600020906003020160009091929091909150600082015181600001556020820151816001015560408201518160020160006101000a81548173ffffffffffffffffffffffffffffffffffffffff021916908373ffffffffffffffffffffffffffffffffffffffff16021790555060608201518160020160146101000a81548163ffffffff021916908363ffffffff16021790555060808201518160020160186101000a81548163ffffffff021916908363ffffffff16021790555060a082015181600201601c6101000a81548160ff021916908315150217905550505050886003600084815260200190815260200160002060006101000a81548173ffffffffffffffffffffffffffffffffffffffff021916908373ffffffffffffffffffffffffffffffffffffffff160217905550600460008a73ffffffffffffffffffffffffffffffffffffffff1673ffffffffffffffffffffffffffffffffffffffff168152602001908152602001600020600081548092919060010191905055507fddf252ad1be2c89b69c2b068fc378daa952ba7f163c4a11628f55a4df523b3ef60008a84604051808473ffffffffffffffffffffffffffffffffffffffff1673ffffffffffffffffffffffffffffffffffffffff1681526020018373ffffffffffffffffffffffffffffffffffffffff1673ffffffffffffffffffffffffffffffffffffffff168152602001828152602001935050505060405180910390a181955050505050509392505050565b6000808263ffffffff168463ffffffff168601019050809150509392505050565b60006003600083815260200190815260200160002060009054906101000a900473ffffffffffffffffffffffffffffffffffffffff169050600073ffffffffffffffffffffffffffffffffffffffff168173ffffffffffffffffffffffffffffffffffffffff1614151515610f1c57600080fd5b919050565b6000600460008373ffffffffffffffffffffffffffffffffffffffff1673ffffffffffffffffffffffffffffffffffffffff168152602001908152602001600020549050919050565b6060600060606000806000610f7e87610f21565b94506000851415610fc1576000604051908082528060200260200182016040528015610fb95781602001602082028038833980820191505090505b5095506110dd565b84604051908082528060200260200182016040528015610ff05781602001602082028038833980820191505090505b5093506001610ffd610ae0565b03925060009150600090505b82811115156110d9578673ffffffffffffffffffffffffffffffffffffffff1660008281548110151561103857fe5b906000526020600020906003020160020160009054906101000a900473ffffffffffffffffffffffffffffffffffffffff1673ffffffffffffffffffffffffffffffffffffffff1614156110cc5760008181548110151561109557fe5b90600052602060002090600302016000015484838151811015156110b557fe5b906020019060200201818152505081806001019250505b8080600101915050611009565b8395505b5050505050919050565b60066020528060005260406000206000915054906101000a900473ffffffffffffffffffffffffffffffffffffffff1681565b6040805190810160405280600381526020017f4d5350000000000000000000000000000000000000000000000000000000000081525081565b600073ffffffffffffffffffffffffffffffffffffffff168273ffffffffffffffffffffffffffffffffffffffff161415151561118f57600080fd5b3073ffffffffffffffffffffffffffffffffffffffff168273ffffffffffffffffffffffffffffffffffffffff16141515156111ca57600080fd5b6111d43382611372565b15156111df57600080fd5b6111ea338383611475565b5050565b60026020528060005260406000206000915054906101000a900473ffffffffffffffffffffffffffffffffffffffff1681565b60056020528060005260406000206000915054906101000a900473ffffffffffffffffffffffffffffffffffffffff1681565b60036020528060005260406000206000915054906101000a900473ffffffffffffffffffffffffffffffffffffffff1681565b60018181548110151561129657fe5b90600052602060002090600202016000915090508060000160009054906101000a900473ffffffffffffffffffffffffffffffffffffffff1690806001018054600181600116156101000203166002900480601f0160208091040260200160405190810160405280929190818152602001828054600181600116156101000203166002900480156113685780601f1061133d57610100808354040283529160200191611368565b820191906000526020600020905b81548152906001019060200180831161134b57829003601f168201915b5050505050905082565b60008273ffffffffffffffffffffffffffffffffffffffff1661139483610ea8565b73ffffffffffffffffffffffffffffffffffffffff1614905092915050565b806006600084815260200190815260200160002060006101000a81548173ffffffffffffffffffffffffffffffffffffffff021916908373ffffffffffffffffffffffffffffffffffffffff1602179055505050565b60008273ffffffffffffffffffffffffffffffffffffffff166006600084815260200190815260200160002060009054906101000a900473ffffffffffffffffffffffffffffffffffffffff1673ffffffffffffffffffffffffffffffffffffffff1614905092915050565b816003600083815260200190815260200160002060006101000a81548173ffffffffffffffffffffffffffffffffffffffff021916908373ffffffffffffffffffffffffffffffffffffffff160217905550600460008473ffffffffffffffffffffffffffffffffffffffff1673ffffffffffffffffffffffffffffffffffffffff1681526020019081526020016000206000815480929190600190039190505550600073ffffffffffffffffffffffffffffffffffffffff168373ffffffffffffffffffffffffffffffffffffffff1614151561162557600460008373ffffffffffffffffffffffffffffffffffffffff1673ffffffffffffffffffffffffffffffffffffffff168152602001908152602001600020600081548092919060010191905055506006600082815260200190815260200160002060006101000a81549073ffffffffffffffffffffffffffffffffffffffff0219169055816005600083815260200190815260200160002060006101000a81548173ffffffffffffffffffffffffffffffffffffffff021916908373ffffffffffffffffffffffffffffffffffffffff1602179055505b7fddf252ad1be2c89b69c2b068fc378daa952ba7f163c4a11628f55a4df523b3ef838383604051808473ffffffffffffffffffffffffffffffffffffffff1673ffffffffffffffffffffffffffffffffffffffff1681526020018373ffffffffffffffffffffffffffffffffffffffff1673ffffffffffffffffffffffffffffffffffffffff168152602001828152602001935050505060405180910390a1505050565b60006116d361192a565b600060408051908101604052808673ffffffffffffffffffffffffffffffffffffffff168152602001858152509150600180839080600181540180825580915050906001820390600052602060002090600202016000909192909190915060008201518160000160006101000a81548173ffffffffffffffffffffffffffffffffffffffff021916908373ffffffffffffffffffffffffffffffffffffffff160217905550602082015181600101908051906020019061179492919061195a565b505050039050846002600083815260200190815260200160002060006101000a81548173ffffffffffffffffffffffffffffffffffffffff021916908373ffffffffffffffffffffffffffffffffffffffff1602179055507fdc1c922a553cc495352bcdbe90335b925277134a1e63f61e7a26e5f414364c35818686604051808481526020018373ffffffffffffffffffffffffffffffffffffffff1673ffffffffffffffffffffffffffffffffffffffff16815260200180602001828103825283818151815260200191508051906020019080838360005b8381101561188857808201518184015260208101905061186d565b50505050905090810190601f1680156118b55780820380516001836020036101000a031916815260200191505b5094505050505060405180910390a1809250505092915050565b60c0604051908101604052806000815260200160008152602001600073ffffffffffffffffffffffffffffffffffffffff168152602001600063ffffffff168152602001600063ffffffff1681526020016000151581525090565b6040805190810160405280600073ffffffffffffffffffffffffffffffffffffffff168152602001606081525090565b828054600181600116156101000203166002900490600052602060002090601f016020900481019282601f1061199b57805160ff19168380011785556119c9565b828001600101855582156119c9579182015b828111156119c85782518255916020019190600101906119ad565b5b5090506119d691906119da565b5090565b6119fc91905b808211156119f85760008160009055506001016119e0565b5090565b905600a165627a7a72305820bcfee08a028c3dff0b73756db26934c65062070d81ccb3c2b3a64c608fb7fde20029",
  "source": "/**\n * Microsponsors.io ERC721 Contract - DEMO\n * For 0x Hackathon -  Feb 2019\n *\n * NOTE:\n * This is a very rough draft for demonstration purposes only.\n *\n * This demo uses ERC721 NFTs as a marketplace for sponsorship of content creators.\n * Each token is a Non-Fungible Token (NFT) that represents a time window during\n * which a content creators' property is available to rent by sponsors.\n *\n * Non-Fungible tokens are perfect for this use-case because each sponsorship\n * slot has a unique value, and will change given its time window.\n *\n * Patterned after 0x Dummy ERC721 ABI:\n * https://github.com/0xProject/0x-monorepo/blob/development/python-packages/contract_artifacts/src/zero_ex/contract_artifacts/artifacts/DummyERC721Token.json*\n */\n\npragma solidity ^0.4.24;\n\n// TODO LATER:\n// import \"./Ownable.sol\";\n\ncontract Microsponsors {\n\n  string public constant name = \"Microsponsors\";\n  string public constant symbol = \"MSP\";\n\n  /**\n  * Events emitted\n  */\n  event PropertyCreated(uint256 propertyId, address creator, string desciption);\n  event Transfer(address from, address to, uint256 tokenId);\n  event Approval(address owner, address approved, uint256 tokenId);\n  // TODO:\n  // event ApprovalForAll(address indexed owner, address indexed operator, bool approved);\n\n\n  /**\n   * Data\n   */\n\n  // The Microsponsors ERC721 Token:\n  // A SponsorSlot is a window of time during which a Property can be\n  // purchased by a sponsor\n  struct SponsorSlot {\n    uint256 id; // token id\n    uint256 propertyId; // maps to Property id\n    address owner; // creator of slot; defaults to content creator when minted\n    uint32 startTime; // timestamp for when sponsorship of a Property begins\n    uint32 endTime; // max timestamp of sponsorship (when it ends)\n    bool isSponsored; // defaults to false when minted\n  }\n\n  struct Property {\n    address creator; // the content creator who will be sponsored\n    string description; // website or property containing the SponsorSlot (ex: \"microsponsors.io-banner-north\")\n  }\n\n  SponsorSlot[] public sponsorSlots;\n  Property[] public properties;\n\n  mapping (uint256 => address) public propertyToCreator;\n  mapping (uint256 => address) public sponsorSlotToOwner;\n  mapping (address => uint256) public ownerToSponsorSlotCount;\n  mapping (uint256 => address) public sponsorSlotToSponsor;\n\n  // Mapping from SponsorSlot ids to an address that has been approved to call\n  // transferFrom(). Each  can only have one approved address for transfer\n  // at any time.\n  mapping (uint256 => address) public sponsorSlotToApproved;\n\n\n  /**\n  * Init contract\n  */\n\n  constructor() public {}\n\n\n  /**\n  * Primary public methods\n  */\n\n  /**\n   *  TODO: Optimize minting process so that it does NOT cost content creators\n   *  extra gas to mint tokenized sponsor slot(s).\n   *  Can do this by reliably generating SponsorSlots with a formula\n   *  and minting (storing) in contract ONLY when the token is purchased,\n   *  so that gas fees are incurred by sponsor only when they buy it (and not\n   *  before).\n   *  -- h/t to FuelGames.io for the pointer\n   */\n\n  /**\n   *  Mint the new SponsorSlot token, assign its ownership to content creator\n   *  that is seeking sponsorship of token.\n   *  Token will then be transfered to the sponsor when they purchase it.\n   *\n   *  TODO LATER: let anyone mint during demo, but production version should\n   *  restrict minting to msg.sender by removing _creator param and setting\n   *  SponsorSlot.owner to msg.sender.\n   */\n  function mint(\n    address _creator,\n    string _propertyDescription,\n    uint32 _startTime\n  ) public returns (uint256) {\n\n    // TODO LATER enforce authorization per user onboarding:\n    // require(isAuthorized(msg.sender));\n\n    uint256 _propertyId = _createProperty(_creator, _propertyDescription);\n\n    // TODO LATER duration is hard-coded to 4hr slots for demo purposes\n    // these will be longer/ varied and schedule-able by creator in production\n    uint32 _duration = 4 hours;\n    uint32 _endTime = uint32(_startTime + _duration);\n\n    // TODO\n    // require(_isValidSponsorSlot(_creator, _propertyDescription, _startTime, _endTime));\n\n    uint256 tokenId = generateTokenId(_propertyId, _startTime, _endTime);\n\n    SponsorSlot memory _sponsorSlot = SponsorSlot({\n      id: uint256(tokenId),\n      propertyId: uint256(_propertyId),\n      owner: _creator,\n      startTime: uint32(_startTime),\n      endTime: uint32(_endTime),\n      isSponsored: false\n    });\n\n    sponsorSlots.push(_sponsorSlot);\n    sponsorSlotToOwner[tokenId] = _creator;\n\n    ownerToSponsorSlotCount[_creator]++;\n\n    emit Transfer(address(0), _creator, tokenId);\n\n    return tokenId;\n  }\n\n  // Generate tokenId with predictable formula\n  // TODO NEXT abstract out the fn that generates property ids, do the same\n  // so that property generateTokenId() can be called by itself and return\n  // same result as mint()\n  function generateTokenId(\n    uint256 _propertyId,\n    uint32 _startTime,\n    uint32 _endTime\n  ) public pure returns (uint256) {\n\n    // TODO LATER: deal with overflows in far, far future\n    uint256 id = _propertyId + _startTime + _endTime;\n    return id;\n  }\n\n\n  /**\n   * ERC721 methods\n   */\n\n  function totalSupply() public view returns (uint) {\n    return sponsorSlots.length;\n  }\n\n  function balanceOf(address _owner) public view returns (uint256 count) {\n    return ownerToSponsorSlotCount[_owner];\n  }\n\n  function ownerOf(uint256 _tokenId) public view returns (address owner) {\n    owner = sponsorSlotToOwner[_tokenId];\n    require(owner != address(0));\n  }\n\n  // Creator approves transfer of the token (a SponsorSlot) to the sponsor\n  // Bidding and order-matching takes place off-chain, so the slot will only\n  // change hands once, from creator to sponsor.\n  function approve(address _to, uint256 _tokenId) external {\n    require(_owns(msg.sender, _tokenId));\n    _approve(_tokenId, _to);\n    emit Approval(msg.sender, _to, _tokenId);\n  }\n\n  // Creators may transfer their own SponsorSlot tokens to another address.\n  function transfer(address _to, uint256 _tokenId) external {\n    // Safety check to prevent against an unexpected 0x0 default.\n    require(_to != address(0));\n    // Disallow transfers to this contract to prevent accidental misuse.\n    // The contract should never own any tokenized SponsorSlots\n    require(_to != address(this));\n    // Only creators can transfer tokenized SponsorSlots to sponsors.\n    require(_owns(msg.sender, _tokenId));\n    // Reassign ownership, clear pending approvals, emit Transfer event.\n    _transfer(msg.sender, _to, _tokenId);\n  }\n\n  // Transfer a SponsorSlot token owned by another address, for which the\n  // calling address has previously been granted transfer approval by the owner.\n  function transferFrom(address _from, address _to, uint256 _tokenId) external {\n    // Safety check to prevent against an unexpected 0x0 default.\n    require(_to != address(0));\n    // Disallow transfers to this contract to prevent accidental misuse.\n    require(_to != address(this));\n    // Check for approval and valid ownership\n    require(_approvedFor(msg.sender, _tokenId));\n    require(_owns(_from, _tokenId));\n\n    // Reassign ownership (also clears pending approvals and emits Transfer event).\n    _transfer(_from, _to, _tokenId);\n  }\n\n  // Returns list of all SponsorSlot ids belonging to an address\n  // Returns a dynamic array, therefore does not support contract-to-contract\n  // calls. Only supported for web3 calls.\n  function tokensOfOwner(address _owner) external view returns (uint256[] tokenIds) {\n    uint256 tokenCount = balanceOf(_owner);\n\n    if (tokenCount == 0) {\n      return new uint256[](0);\n    } else {\n      uint256[] memory result = new uint256[](tokenCount);\n\n      uint256 totalSlots = totalSupply() - 1;\n      uint256 resultIndex = 0;\n\n      for (uint256 counter = 0; counter <= totalSlots; counter++) {\n          // if (sponsorSlots[counter].exists) {\n            if (sponsorSlots[counter].owner == _owner) {\n              result[resultIndex] = sponsorSlots[counter].id;\n              resultIndex++;\n            }\n          // }\n      }\n\n      return result;\n    }\n  }\n\n  /** TODO\n   *  https://github.com/OpenZeppelin/openzeppelin-solidity/blob/master/contracts/token/ERC721/ERC721.sol\n   *  @dev Sets or unsets the approval of a given operator\n   *  An operator is allowed to transfer all tokens of the sender on their behalf\n   *  @param to operator address to set the approval\n   *  @param approved representing the status of the approval to be set\n   */\n\n  // function setApprovalForAll(address to, bool approved) public {\n  //     require(to != msg.sender);\n  //     _operatorApprovals[msg.sender][to] = approved;\n  //     emit ApprovalForAll(msg.sender, to, approved);\n  // }\n\n  /** TODO\n   *  https://github.com/OpenZeppelin/openzeppelin-solidity/blob/master/contracts/token/ERC721/ERC721.sol\n   *  @dev Gets the approved address for a token ID, or zero if no address set\n   *  Reverts if the token ID does not exist.\n   *  @param tokenId uint256 ID of the token to query the approval of\n   *  @return address currently approved for the given token ID\n   */\n\n  // function getApproved(uint256 tokenId) public view returns (address) {\n  //     require(_exists(tokenId));\n  //     return _tokenApprovals[tokenId];\n  // }\n\n  /** TODO\n   *  https://github.com/OpenZeppelin/openzeppelin-solidity/blob/master/contracts/token/ERC721/ERC721.sol\n   *  @dev Safely transfers the ownership of a given token ID to another address\n   *  If the target address is a contract, it must implement `onERC721Received`,\n   *  which is called upon a safe transfer, and return the magic value\n   *  `bytes4(keccak256(\"onERC721Received(address,address,uint256,bytes)\"))`; otherwise,\n   *  the transfer is reverted.\n   *  Requires the msg.sender to be the owner, approved, or operator\n   *  @param from current owner of the token\n   *  @param to address to receive the ownership of the given token ID\n   *  @param tokenId uint256 ID of the token to be transferred\n   */\n\n  // function safeTransferFrom(address from, address to, uint256 tokenId) public {\n  //     safeTransferFrom(from, to, tokenId, \"\");\n  // }\n\n  /** TODO\n   *  https://github.com/OpenZeppelin/openzeppelin-solidity/blob/master/contracts/token/ERC721/ERC721.sol\n   *  @dev Tells whether an operator is approved by a given owner\n   *  @param owner owner address which you want to query the approval of\n   *  @param operator operator address which you want to query the approval of\n   *  @return bool whether the given operator is approved by the given owner\n   */\n\n  // function isApprovedForAll(address owner, address operator) public view returns (bool) {\n  //     return _operatorApprovals[owner][operator];\n  // }\n\n  /** TODO\n   * @dev Internal function to burn a specific token\n   * Reverts if the token does not exist\n   * @param tokenId uint256 ID of the token being burned\n   */\n  // function _burn(uint256 tokenId) internal {\n  //     _burn(ownerOf(tokenId), tokenId);\n  // }\n\n  /** TODO\n   * @dev Tells whether an operator is approved by a given owner\n   * @param owner owner address which you want to query the approval of\n   * @param operator operator address which you want to query the approval of\n   * @return bool whether the given operator is approved by the given owner\n   */\n  // function isApprovedForAll(address owner, address operator) public view returns (bool) {\n  //     return _operatorApprovals[owner][operator];\n  // }\n\n  // TODO - ?\n  // transferOwnership()\n  // 0x Dummy ERC721 ABI specifies this function\n  // Not sure if its really necessary:\n  // https://github.com/0xProject/0x-monorepo/blob/development/python-packages/contract_artifacts/src/zero_ex/contract_artifacts/artifacts/DummyERC721Token.json\n\n\n  /**\n   * Private Methods\n   */\n\n  function _createProperty(\n    address _creator,\n    string _description\n  ) private returns (uint256) {\n\n    Property memory _property = Property({\n      creator: _creator,\n      description: _description\n    });\n\n    // TODO LATER Ensure there are no duplicate properties created\n    uint256 propertyId = properties.push(_property) - 1;\n    propertyToCreator[propertyId] = _creator;\n    emit PropertyCreated(propertyId, _creator, _description);\n\n    return propertyId;\n  }\n\n  // Check if Property is available during time window specified by SponsorSlot\n  // function _isValidSponsorSlot(\n    // address _creator,\n    // string _propertyDescription,\n    // uint32 _startTime,\n    // uint32 _endTime\n  // ) private pure returns (bool) {\n\n    // TODO\n    // ensure start time is valid/ not duplicate\n    // ensure duration time is valid/ not overlapping w others\n    // return true;\n  // }\n\n  function _owns(address _claimant, uint256 _tokenId) internal view returns (bool) {\n    return (ownerOf(_tokenId) == _claimant);\n  }\n\n  function _approve(uint256 _tokenId, address _approved) internal {\n    sponsorSlotToApproved[_tokenId] = _approved;\n  }\n\n  // TODO: for demo purposes, we may want to disable this check\n  function _approvedFor(address _claimant, uint256 _tokenId) internal view returns (bool) {\n    return sponsorSlotToApproved[_tokenId] == _claimant;\n  }\n\n  function _transfer(address _from, address _to, uint256 _tokenId) internal {\n      // transfer ownership\n      sponsorSlotToOwner[_tokenId] = _to;\n      // decrement creator's SponsorSlot token count\n      ownerToSponsorSlotCount[_from]--;\n\n      if (_from != address(0)) {\n        // increment sponsors' SponsorSlot token count\n        ownerToSponsorSlotCount[_to]++;\n        // clear previous ownership approval\n        delete sponsorSlotToApproved[_tokenId];\n        // map sponsor slot to sponsor\n        sponsorSlotToSponsor[_tokenId] = _to;\n      }\n      // Emit the transfer event.\n      emit Transfer(_from, _to, _tokenId);\n  }\n\n}\n",
  "sourcePath": "/Users/lauren/github/0x-hackathon-contracts/contracts/Microsponsors.sol",
  "compiler": {
    "name": "solc",
    "version": "0.4.25+commit.59dbf8f1.Emscripten.clang"
  },
  "schemaVersion": "2.0.2",
  "updatedAt": "2019-02-01T21:03:15.238Z"
}