{
  "contractName": "Microsponsors",
  "abi": [
    {
      "constant": true,
      "inputs": [
        {
          "name": "",
          "type": "uint256"
        }
      ],
      "name": "sponsorSlots",
      "outputs": [
        {
          "name": "propertyId",
          "type": "uint256"
        },
        {
          "name": "owner",
          "type": "address"
        },
        {
          "name": "startTime",
          "type": "uint32"
        },
        {
          "name": "endTime",
          "type": "uint32"
        },
        {
          "name": "isSponsored",
          "type": "bool"
        }
      ],
      "payable": false,
      "stateMutability": "view",
      "type": "function"
    },
    {
      "constant": true,
      "inputs": [
        {
          "name": "",
          "type": "address"
        }
      ],
      "name": "ownerToSponsorSlotCount",
      "outputs": [
        {
          "name": "",
          "type": "uint256"
        }
      ],
      "payable": false,
      "stateMutability": "view",
      "type": "function"
    },
    {
      "constant": true,
      "inputs": [
        {
          "name": "",
          "type": "uint256"
        }
      ],
      "name": "sponsorSlotIdToApproved",
      "outputs": [
        {
          "name": "",
          "type": "address"
        }
      ],
      "payable": false,
      "stateMutability": "view",
      "type": "function"
    },
    {
      "constant": true,
      "inputs": [
        {
          "name": "",
          "type": "uint256"
        }
      ],
      "name": "propertyToCreator",
      "outputs": [
        {
          "name": "",
          "type": "address"
        }
      ],
      "payable": false,
      "stateMutability": "view",
      "type": "function"
    },
    {
      "constant": true,
      "inputs": [
        {
          "name": "",
          "type": "uint256"
        }
      ],
      "name": "sponsorSlotToSponsor",
      "outputs": [
        {
          "name": "",
          "type": "address"
        }
      ],
      "payable": false,
      "stateMutability": "view",
      "type": "function"
    },
    {
      "constant": true,
      "inputs": [
        {
          "name": "",
          "type": "uint256"
        }
      ],
      "name": "sponsorSlotToOwner",
      "outputs": [
        {
          "name": "",
          "type": "address"
        }
      ],
      "payable": false,
      "stateMutability": "view",
      "type": "function"
    },
    {
      "constant": true,
      "inputs": [
        {
          "name": "",
          "type": "uint256"
        }
      ],
      "name": "properties",
      "outputs": [
        {
          "name": "creator",
          "type": "address"
        },
        {
          "name": "description",
          "type": "string"
        }
      ],
      "payable": false,
      "stateMutability": "view",
      "type": "function"
    },
    {
      "inputs": [],
      "payable": false,
      "stateMutability": "nonpayable",
      "type": "constructor"
    },
    {
      "anonymous": false,
      "inputs": [
        {
          "indexed": false,
          "name": "propertyId",
          "type": "uint256"
        },
        {
          "indexed": false,
          "name": "creator",
          "type": "address"
        },
        {
          "indexed": false,
          "name": "desciption",
          "type": "string"
        }
      ],
      "name": "PropertyCreated",
      "type": "event"
    },
    {
      "anonymous": false,
      "inputs": [
        {
          "indexed": false,
          "name": "slotId",
          "type": "uint256"
        },
        {
          "indexed": false,
          "name": "propertyId",
          "type": "uint256"
        },
        {
          "indexed": false,
          "name": "creator",
          "type": "address"
        },
        {
          "indexed": false,
          "name": "startTime",
          "type": "uint32"
        },
        {
          "indexed": false,
          "name": "endTime",
          "type": "uint32"
        },
        {
          "indexed": false,
          "name": "isSponsored",
          "type": "bool"
        }
      ],
      "name": "SponsorSlotMinted",
      "type": "event"
    },
    {
      "anonymous": false,
      "inputs": [
        {
          "indexed": false,
          "name": "slotId",
          "type": "uint256"
        },
        {
          "indexed": false,
          "name": "propertyId",
          "type": "uint256"
        },
        {
          "indexed": false,
          "name": "creator",
          "type": "address"
        },
        {
          "indexed": false,
          "name": "sponsor",
          "type": "address"
        }
      ],
      "name": "SponsorSlotPurchased",
      "type": "event"
    },
    {
      "anonymous": false,
      "inputs": [
        {
          "indexed": false,
          "name": "owner",
          "type": "address"
        },
        {
          "indexed": false,
          "name": "approved",
          "type": "address"
        },
        {
          "indexed": false,
          "name": "tokenId",
          "type": "uint256"
        }
      ],
      "name": "Approval",
      "type": "event"
    },
    {
      "constant": false,
      "inputs": [
        {
          "name": "_creator",
          "type": "address"
        },
        {
          "name": "_propertyDescription",
          "type": "string"
        },
        {
          "name": "_startTime",
          "type": "uint32"
        }
      ],
      "name": "mintSponsorSlot",
      "outputs": [
        {
          "name": "",
          "type": "uint256"
        }
      ],
      "payable": false,
      "stateMutability": "nonpayable",
      "type": "function"
    },
    {
      "constant": true,
      "inputs": [],
      "name": "totalSupply",
      "outputs": [
        {
          "name": "",
          "type": "uint256"
        }
      ],
      "payable": false,
      "stateMutability": "view",
      "type": "function"
    },
    {
      "constant": true,
      "inputs": [
        {
          "name": "_owner",
          "type": "address"
        }
      ],
      "name": "balanceOf",
      "outputs": [
        {
          "name": "count",
          "type": "uint256"
        }
      ],
      "payable": false,
      "stateMutability": "view",
      "type": "function"
    },
    {
      "constant": true,
      "inputs": [
        {
          "name": "_tokenId",
          "type": "uint256"
        }
      ],
      "name": "ownerOf",
      "outputs": [
        {
          "name": "owner",
          "type": "address"
        }
      ],
      "payable": false,
      "stateMutability": "view",
      "type": "function"
    },
    {
      "constant": false,
      "inputs": [
        {
          "name": "_to",
          "type": "address"
        },
        {
          "name": "_tokenId",
          "type": "uint256"
        }
      ],
      "name": "approve",
      "outputs": [],
      "payable": false,
      "stateMutability": "nonpayable",
      "type": "function"
    }
  ],
  "bytecode": "0x608060405234801561001057600080fd5b506110d5806100206000396000f3006080604052600436106100ba576000357c0100000000000000000000000000000000000000000000000000000000900463ffffffff16806303b8d3ee146100bf57806305f4f5891461016c578063095ea7b31461021157806318160ddd1461025e5780632fab6363146102895780635b3f1fa8146102e05780636352211e1461034d57806370a08231146103ba578063bd20ac6c14610411578063ce5f8d651461047e578063e4512b34146104eb578063f7b1080814610558575b600080fd5b3480156100cb57600080fd5b50610156600480360381019080803573ffffffffffffffffffffffffffffffffffffffff169060200190929190803590602001908201803590602001908080601f0160208091040260200160405190810160405280939291908181526020018383808284378201915050505050509192919290803563ffffffff169060200190929190505050610631565b6040518082815260200191505060405180910390f35b34801561017857600080fd5b50610197600480360381019080803590602001909291905050506108f2565b604051808681526020018573ffffffffffffffffffffffffffffffffffffffff1673ffffffffffffffffffffffffffffffffffffffff1681526020018463ffffffff1663ffffffff1681526020018363ffffffff1663ffffffff168152602001821515151581526020019550505050505060405180910390f35b34801561021d57600080fd5b5061025c600480360381019080803573ffffffffffffffffffffffffffffffffffffffff16906020019092919080359060200190929190505050610984565b005b34801561026a57600080fd5b50610273610a46565b6040518082815260200191505060405180910390f35b34801561029557600080fd5b506102ca600480360381019080803573ffffffffffffffffffffffffffffffffffffffff169060200190929190505050610a52565b6040518082815260200191505060405180910390f35b3480156102ec57600080fd5b5061030b60048036038101908080359060200190929190505050610a6a565b604051808273ffffffffffffffffffffffffffffffffffffffff1673ffffffffffffffffffffffffffffffffffffffff16815260200191505060405180910390f35b34801561035957600080fd5b5061037860048036038101908080359060200190929190505050610a9d565b604051808273ffffffffffffffffffffffffffffffffffffffff1673ffffffffffffffffffffffffffffffffffffffff16815260200191505060405180910390f35b3480156103c657600080fd5b506103fb600480360381019080803573ffffffffffffffffffffffffffffffffffffffff169060200190929190505050610b16565b6040518082815260200191505060405180910390f35b34801561041d57600080fd5b5061043c60048036038101908080359060200190929190505050610b5f565b604051808273ffffffffffffffffffffffffffffffffffffffff1673ffffffffffffffffffffffffffffffffffffffff16815260200191505060405180910390f35b34801561048a57600080fd5b506104a960048036038101908080359060200190929190505050610b92565b604051808273ffffffffffffffffffffffffffffffffffffffff1673ffffffffffffffffffffffffffffffffffffffff16815260200191505060405180910390f35b3480156104f757600080fd5b5061051660048036038101908080359060200190929190505050610bc5565b604051808273ffffffffffffffffffffffffffffffffffffffff1673ffffffffffffffffffffffffffffffffffffffff16815260200191505060405180910390f35b34801561056457600080fd5b5061058360048036038101908080359060200190929190505050610bf8565b604051808373ffffffffffffffffffffffffffffffffffffffff1673ffffffffffffffffffffffffffffffffffffffff16815260200180602001828103825283818151815260200191508051906020019080838360005b838110156105f55780820151818401526020810190506105da565b50505050905090810190601f1680156106225780820380516001836020036101000a031916815260200191505b50935050505060405180910390f35b60008060008061063f610f80565b600061064b8989610ce3565b94506102589350838701925060a0604051908101604052808681526020018a73ffffffffffffffffffffffffffffffffffffffff1681526020018863ffffffff1681526020018463ffffffff1681526020016000151581525091506001600083908060018154018082558091505090600182039060005260206000209060020201600090919290919091506000820151816000015560208201518160010160006101000a81548173ffffffffffffffffffffffffffffffffffffffff021916908373ffffffffffffffffffffffffffffffffffffffff16021790555060408201518160010160146101000a81548163ffffffff021916908363ffffffff16021790555060608201518160010160186101000a81548163ffffffff021916908363ffffffff160217905550608082015181600101601c6101000a81548160ff02191690831515021790555050500390507f29585858d3f2d8b299c2a1fb5789c8990fbb653c875c28c06ae2ea534146ed1a81868b8a876000604051808781526020018681526020018573ffffffffffffffffffffffffffffffffffffffff1673ffffffffffffffffffffffffffffffffffffffff1681526020018463ffffffff1663ffffffff1681526020018363ffffffff1663ffffffff16815260200182151515158152602001965050505050505060405180910390a1886003600083815260200190815260200160002060006101000a81548173ffffffffffffffffffffffffffffffffffffffff021916908373ffffffffffffffffffffffffffffffffffffffff160217905550600460008a73ffffffffffffffffffffffffffffffffffffffff1673ffffffffffffffffffffffffffffffffffffffff1681526020019081526020016000206000815480929190600101919050555080955050505050509392505050565b60008181548110151561090157fe5b90600052602060002090600202016000915090508060000154908060010160009054906101000a900473ffffffffffffffffffffffffffffffffffffffff16908060010160149054906101000a900463ffffffff16908060010160189054906101000a900463ffffffff169080600101601c9054906101000a900460ff16905085565b61098e3382610ee9565b151561099957600080fd5b6109a38183610f2a565b7f8c5be1e5ebec7d5bd14f71427d1e84f3dd0314c0f7b2291e5b200ac8c7c3b925338383604051808473ffffffffffffffffffffffffffffffffffffffff1673ffffffffffffffffffffffffffffffffffffffff1681526020018373ffffffffffffffffffffffffffffffffffffffff1673ffffffffffffffffffffffffffffffffffffffff168152602001828152602001935050505060405180910390a15050565b60008080549050905090565b60046020528060005260406000206000915090505481565b60056020528060005260406000206000915054906101000a900473ffffffffffffffffffffffffffffffffffffffff1681565b60006003600083815260200190815260200160002060009054906101000a900473ffffffffffffffffffffffffffffffffffffffff169050600073ffffffffffffffffffffffffffffffffffffffff168173ffffffffffffffffffffffffffffffffffffffff1614151515610b1157600080fd5b919050565b6000600460008373ffffffffffffffffffffffffffffffffffffffff1673ffffffffffffffffffffffffffffffffffffffff168152602001908152602001600020549050919050565b60026020528060005260406000206000915054906101000a900473ffffffffffffffffffffffffffffffffffffffff1681565b60066020528060005260406000206000915054906101000a900473ffffffffffffffffffffffffffffffffffffffff1681565b60036020528060005260406000206000915054906101000a900473ffffffffffffffffffffffffffffffffffffffff1681565b600181815481101515610c0757fe5b90600052602060002090600202016000915090508060000160009054906101000a900473ffffffffffffffffffffffffffffffffffffffff1690806001018054600181600116156101000203166002900480601f016020809104026020016040519081016040528092919081815260200182805460018160011615610100020316600290048015610cd95780601f10610cae57610100808354040283529160200191610cd9565b820191906000526020600020905b815481529060010190602001808311610cbc57829003601f168201915b5050505050905082565b6000610ced610fd4565b600060408051908101604052808673ffffffffffffffffffffffffffffffffffffffff168152602001858152509150600180839080600181540180825580915050906001820390600052602060002090600202016000909192909190915060008201518160000160006101000a81548173ffffffffffffffffffffffffffffffffffffffff021916908373ffffffffffffffffffffffffffffffffffffffff1602179055506020820151816001019080519060200190610dae929190611004565b5050500390507fdc1c922a553cc495352bcdbe90335b925277134a1e63f61e7a26e5f414364c35818686604051808481526020018373ffffffffffffffffffffffffffffffffffffffff1673ffffffffffffffffffffffffffffffffffffffff16815260200180602001828103825283818151815260200191508051906020019080838360005b83811015610e50578082015181840152602081019050610e35565b50505050905090810190601f168015610e7d5780820380516001836020036101000a031916815260200191505b5094505050505060405180910390a1846002600083815260200190815260200160002060006101000a81548173ffffffffffffffffffffffffffffffffffffffff021916908373ffffffffffffffffffffffffffffffffffffffff160217905550809250505092915050565b60008273ffffffffffffffffffffffffffffffffffffffff16610f0b83610a9d565b73ffffffffffffffffffffffffffffffffffffffff1614905092915050565b806005600084815260200190815260200160002060006101000a81548173ffffffffffffffffffffffffffffffffffffffff021916908373ffffffffffffffffffffffffffffffffffffffff1602179055505050565b60a06040519081016040528060008152602001600073ffffffffffffffffffffffffffffffffffffffff168152602001600063ffffffff168152602001600063ffffffff1681526020016000151581525090565b6040805190810160405280600073ffffffffffffffffffffffffffffffffffffffff168152602001606081525090565b828054600181600116156101000203166002900490600052602060002090601f016020900481019282601f1061104557805160ff1916838001178555611073565b82800160010185558215611073579182015b82811115611072578251825591602001919060010190611057565b5b5090506110809190611084565b5090565b6110a691905b808211156110a257600081600090555060010161108a565b5090565b905600a165627a7a72305820ea5c54c9437e6dd49bd53048d8863f57b8f507b086edfa6cacfcc4547caff7480029",
  "source": "// Microsponsors.io - DEMO ONLY!\n// This demo uses ERC721 NFTs as a marketplace for sponsorships of content creators.\n// This is a rough draft for demo purposes only (not nearly production-ready!).\n\npragma solidity ^0.4.24;\n\nimport \"./ERC721.sol\";\n// TODO LATER:\n// import \"./Ownable.sol\";\n// import \"./Safemath.sol\";\n\n\ncontract Microsponsors is ERC721 {\n\n  /**\n  * Events emitted\n  */\n  event PropertyCreated(uint256 propertyId, address creator, string desciption);\n  event SponsorSlotMinted(uint256 slotId, uint256 propertyId, address creator, uint32 startTime, uint32 endTime, bool isSponsored);\n  event SponsorSlotPurchased(uint256 slotId, uint256 propertyId, address creator, address sponsor);\n\n\n  /**\n   * Data types\n   */\n\n  // The Microsponsors ERC721 Token:\n  // A SponsorSlot is a window of time during which a Property can be purchased by a sponsor\n  struct SponsorSlot {\n    uint256 propertyId; // maps to Property id\n    address owner; // creator of slot; defaults to content creator when minted\n    uint32 startTime; // timestamp for when sponsorship of a Property begins\n    uint32 endTime; // max timestamp of sponsorship (when it ends)\n    bool isSponsored; // defaults to false when minted\n  }\n\n  struct Property {\n    address creator; // the content creator who will be sponsored\n    string description; // website or property that contains the SponsorSlot (ex: \"microsponsors.io-banner-north\")\n  }\n\n  SponsorSlot[] public sponsorSlots;\n  Property[] public properties;\n\n  mapping (uint256 => address) public propertyToCreator;\n  mapping (uint256 => address) public sponsorSlotToOwner;\n  mapping (address => uint256) public ownerToSponsorSlotCount;\n\n  // Mapping from SponsorSlot ids to an address that has been approved to call\n  // transferFrom(). Each  can only have one approved address for transfer\n  // at any time. A zero value means no approval is outstanding.\n  mapping (uint256 => address) public sponsorSlotIdToApproved;\n\n  // TODO:\n  mapping (uint256 => address) public sponsorSlotToSponsor;\n\n\n  /**\n  * Init contract\n  */\n\n  constructor() public {}\n\n\n  /**\n  * Primary public methods\n  */\n\n  /**\n   * TODO: optimize minting process so that it does NOT cost content creators\n   * extra gas to mint tokenized sponsor slot(s).\n   * Can do this by reliably generating SponsorSlots with a formula\n   * and minting (storing) in contract ONLY when the token is purchased.\n   */\n\n  /**\n   * Mint the new SponsorSlot NFT, assign its ownership to content creator\n   * Which will then be transfered to the sponsor when they purchase it.\n   *\n   * TODO LATER: let anyone mint during demo, but prod version should restrict\n   * minting to msg.sender by removing _creator param and setting\n   * SponsorSlot.owner to msg.sender\n   */\n  function mintSponsorSlot(\n    address _creator,\n    string _propertyDescription,\n    uint32 _startTime\n  ) public returns (uint256) {\n\n    // TODO LATER enforce authorization per user onboarding:\n    // require(isAuthorized(msg.sender));\n\n    uint256 _propertyId = _createProperty(_creator, _propertyDescription);\n\n    // TODO LATER duration is hard-coded to 10 min slots for demo purposes only;\n    // these will obviously be longer/ more varied and schedule-able in production\n    uint32 _duration = 10 minutes;\n    uint32 _endTime = uint32(_startTime + _duration);\n\n    // TODO\n    // require(_isValidSponsorSlot(_creator, _propertyDescription, _startTime, _endTime));\n\n    SponsorSlot memory _sponsorSlot = SponsorSlot({\n      propertyId: uint256(_propertyId),\n      owner: _creator,\n      startTime: uint32(_startTime),\n      endTime: uint32(_endTime),\n      isSponsored: false\n    });\n\n    uint256 id = sponsorSlots.push(_sponsorSlot) - 1;\n    emit SponsorSlotMinted(id, _propertyId, _creator, _startTime, _endTime, false);\n    sponsorSlotToOwner[id] = _creator;\n    ownerToSponsorSlotCount[_creator]++;\n\n    return id;\n  }\n\n  // function purchaseSponsorSlot() public payable {\n    // TODO LATER enforce authorization per user onboarding:\n    // require(isAuthorized(msg.sender));\n\n    // sponsorSlotToCreator[id] = msg.sender;\n\n  // }\n\n\n  /**\n   * ERC721 methods\n   */\n  function totalSupply() public view returns (uint) {\n    return sponsorSlots.length;\n  }\n\n  function balanceOf(address _owner) public view returns (uint256 count) {\n    return ownerToSponsorSlotCount[_owner];\n  }\n\n  function ownerOf(uint256 _tokenId) public view returns (address owner) {\n    owner = sponsorSlotToOwner[_tokenId];\n    require(owner != address(0));\n  }\n\n  // Creator approves transfer of the token (a SponsorSlot) to the sponsor\n  // Bidding and order-matching takes place off-chain, so the slot will only\n  // change hands once, from creator to sponsor.\n  function approve(address _to, uint256 _tokenId) external {\n    require(_owns(msg.sender, _tokenId));\n    _approve(_tokenId, _to);\n    emit Approval(msg.sender, _to, _tokenId);\n  }\n\n\n  /**\n   * Private Methods\n   */\n\n  function _createProperty(\n    address _creator,\n    string _description\n  ) private returns (uint256) {\n\n    Property memory _property = Property({\n      creator: _creator,\n      description: _description\n    });\n\n    // TODO LATER Ensure there are no duplicate properties created\n    uint256 propertyId = properties.push(_property) - 1;\n    emit PropertyCreated(propertyId, _creator, _description);\n    propertyToCreator[propertyId] = _creator;\n\n    return propertyId;\n  }\n\n  // Check if Property is available during time window specified by SponsorSlot\n  function _isValidSponsorSlot(\n    // address _creator,\n    // string _propertyDescription,\n    // uint32 _startTime,\n    // uint32 _endTime\n  ) private pure returns (bool) {\n\n    // TODO\n    // ensure start time is valid/ not duplicate\n    // ensure duration time is valid/ not overlapping w others\n    return true;\n  }\n\n  function _owns(address _claimant, uint256 _tokenId) internal view returns (bool) {\n    return (ownerOf(_tokenId) == _claimant);\n  }\n\n  function _approve(uint256 _tokenId, address _approved) internal {\n    sponsorSlotIdToApproved[_tokenId] = _approved;\n  }\n\n  /**\n  * Withdraw from contract\n  */\n\n  // function withdraw() external onlyOwner {\n  // }\n}\n",
  "sourcePath": "/Users/lauren/github/0x-hackathon-contracts/contracts/Microsponsors.sol",
  "compiler": {
    "name": "solc",
    "version": "0.4.25+commit.59dbf8f1.Emscripten.clang"
  },
  "schemaVersion": "2.0.2",
  "updatedAt": "2019-01-31T06:21:50.076Z"
}