{
  "contractName": "Microsponsors",
  "abi": [
    {
      "constant": true,
      "inputs": [
        {
          "name": "",
          "type": "uint256"
        }
      ],
      "name": "sponsorSlots",
      "outputs": [
        {
          "name": "id",
          "type": "uint256"
        },
        {
          "name": "propertyId",
          "type": "uint256"
        },
        {
          "name": "owner",
          "type": "address"
        },
        {
          "name": "startTime",
          "type": "uint32"
        },
        {
          "name": "endTime",
          "type": "uint32"
        },
        {
          "name": "isSponsored",
          "type": "bool"
        }
      ],
      "payable": false,
      "stateMutability": "view",
      "type": "function"
    },
    {
      "constant": true,
      "inputs": [],
      "name": "name",
      "outputs": [
        {
          "name": "",
          "type": "string"
        }
      ],
      "payable": false,
      "stateMutability": "view",
      "type": "function"
    },
    {
      "constant": true,
      "inputs": [],
      "name": "duration",
      "outputs": [
        {
          "name": "",
          "type": "uint32"
        }
      ],
      "payable": false,
      "stateMutability": "view",
      "type": "function"
    },
    {
      "constant": true,
      "inputs": [
        {
          "name": "",
          "type": "address"
        }
      ],
      "name": "ownerToSponsorSlotCount",
      "outputs": [
        {
          "name": "",
          "type": "uint256"
        }
      ],
      "payable": false,
      "stateMutability": "view",
      "type": "function"
    },
    {
      "constant": true,
      "inputs": [
        {
          "name": "",
          "type": "address"
        }
      ],
      "name": "creatorToProperty",
      "outputs": [
        {
          "name": "",
          "type": "uint256"
        }
      ],
      "payable": false,
      "stateMutability": "view",
      "type": "function"
    },
    {
      "constant": true,
      "inputs": [
        {
          "name": "",
          "type": "uint256"
        }
      ],
      "name": "sponsorSlotToApproved",
      "outputs": [
        {
          "name": "",
          "type": "address"
        }
      ],
      "payable": false,
      "stateMutability": "view",
      "type": "function"
    },
    {
      "constant": true,
      "inputs": [],
      "name": "symbol",
      "outputs": [
        {
          "name": "",
          "type": "string"
        }
      ],
      "payable": false,
      "stateMutability": "view",
      "type": "function"
    },
    {
      "constant": true,
      "inputs": [
        {
          "name": "",
          "type": "uint256"
        }
      ],
      "name": "sponsorSlotToSponsor",
      "outputs": [
        {
          "name": "",
          "type": "address"
        }
      ],
      "payable": false,
      "stateMutability": "view",
      "type": "function"
    },
    {
      "constant": true,
      "inputs": [
        {
          "name": "",
          "type": "uint256"
        }
      ],
      "name": "sponsorSlotToOwner",
      "outputs": [
        {
          "name": "",
          "type": "address"
        }
      ],
      "payable": false,
      "stateMutability": "view",
      "type": "function"
    },
    {
      "inputs": [],
      "payable": false,
      "stateMutability": "nonpayable",
      "type": "constructor"
    },
    {
      "anonymous": false,
      "inputs": [
        {
          "indexed": false,
          "name": "propertyId",
          "type": "uint256"
        },
        {
          "indexed": false,
          "name": "creator",
          "type": "address"
        },
        {
          "indexed": false,
          "name": "desrciption",
          "type": "string"
        }
      ],
      "name": "PropertyCreated",
      "type": "event"
    },
    {
      "anonymous": false,
      "inputs": [
        {
          "indexed": false,
          "name": "from",
          "type": "address"
        },
        {
          "indexed": false,
          "name": "to",
          "type": "address"
        },
        {
          "indexed": false,
          "name": "tokenId",
          "type": "uint256"
        }
      ],
      "name": "Transfer",
      "type": "event"
    },
    {
      "anonymous": false,
      "inputs": [
        {
          "indexed": false,
          "name": "owner",
          "type": "address"
        },
        {
          "indexed": false,
          "name": "approved",
          "type": "address"
        },
        {
          "indexed": false,
          "name": "tokenId",
          "type": "uint256"
        }
      ],
      "name": "Approval",
      "type": "event"
    },
    {
      "constant": false,
      "inputs": [
        {
          "name": "_creator",
          "type": "address"
        },
        {
          "name": "_propertyDescription",
          "type": "string"
        },
        {
          "name": "_startTime",
          "type": "uint32"
        }
      ],
      "name": "mint",
      "outputs": [
        {
          "name": "",
          "type": "uint256"
        }
      ],
      "payable": false,
      "stateMutability": "nonpayable",
      "type": "function"
    },
    {
      "constant": true,
      "inputs": [
        {
          "name": "_creator",
          "type": "address"
        },
        {
          "name": "_propertyDescription",
          "type": "string"
        },
        {
          "name": "_startTime",
          "type": "uint32"
        }
      ],
      "name": "generateTokenId",
      "outputs": [
        {
          "name": "",
          "type": "uint256"
        }
      ],
      "payable": false,
      "stateMutability": "pure",
      "type": "function"
    },
    {
      "constant": true,
      "inputs": [],
      "name": "totalSupply",
      "outputs": [
        {
          "name": "",
          "type": "uint256"
        }
      ],
      "payable": false,
      "stateMutability": "view",
      "type": "function"
    },
    {
      "constant": true,
      "inputs": [
        {
          "name": "_owner",
          "type": "address"
        }
      ],
      "name": "balanceOf",
      "outputs": [
        {
          "name": "count",
          "type": "uint256"
        }
      ],
      "payable": false,
      "stateMutability": "view",
      "type": "function"
    },
    {
      "constant": true,
      "inputs": [
        {
          "name": "_tokenId",
          "type": "uint256"
        }
      ],
      "name": "ownerOf",
      "outputs": [
        {
          "name": "owner",
          "type": "address"
        }
      ],
      "payable": false,
      "stateMutability": "view",
      "type": "function"
    },
    {
      "constant": false,
      "inputs": [
        {
          "name": "_to",
          "type": "address"
        },
        {
          "name": "_tokenId",
          "type": "uint256"
        }
      ],
      "name": "approve",
      "outputs": [],
      "payable": false,
      "stateMutability": "nonpayable",
      "type": "function"
    },
    {
      "constant": false,
      "inputs": [
        {
          "name": "_to",
          "type": "address"
        },
        {
          "name": "_tokenId",
          "type": "uint256"
        }
      ],
      "name": "transfer",
      "outputs": [],
      "payable": false,
      "stateMutability": "nonpayable",
      "type": "function"
    },
    {
      "constant": false,
      "inputs": [
        {
          "name": "_from",
          "type": "address"
        },
        {
          "name": "_to",
          "type": "address"
        },
        {
          "name": "_tokenId",
          "type": "uint256"
        }
      ],
      "name": "transferFrom",
      "outputs": [],
      "payable": false,
      "stateMutability": "nonpayable",
      "type": "function"
    },
    {
      "constant": true,
      "inputs": [
        {
          "name": "_owner",
          "type": "address"
        }
      ],
      "name": "tokensOfOwner",
      "outputs": [
        {
          "name": "tokenIds",
          "type": "uint256[]"
        }
      ],
      "payable": false,
      "stateMutability": "view",
      "type": "function"
    }
  ],
  "bytecode": "0x608060405234801561001057600080fd5b506119a9806100206000396000f3006080604052600436106100fc576000357c0100000000000000000000000000000000000000000000000000000000900463ffffffff16806305f4f5891461010157806306fdde03146101ad578063095ea7b31461023d5780630fb5a6b41461028a57806318160ddd146102c157806323b872dd146102ec5780632fab63631461035957806340a876de146103b057806340f008cb1461045d5780636352211e1461050a57806370a08231146105775780638462151c146105ce5780638b9394f01461066657806394d954d7146106bd57806395d89b411461072a578063a9059cbb146107ba578063ce5f8d6514610807578063e4512b3414610874575b600080fd5b34801561010d57600080fd5b5061012c600480360381019080803590602001909291905050506108e1565b604051808781526020018681526020018573ffffffffffffffffffffffffffffffffffffffff1673ffffffffffffffffffffffffffffffffffffffff1681526020018463ffffffff1663ffffffff1681526020018363ffffffff1663ffffffff16815260200182151515158152602001965050505050505060405180910390f35b3480156101b957600080fd5b506101c2610979565b6040518080602001828103825283818151815260200191508051906020019080838360005b838110156102025780820151818401526020810190506101e7565b50505050905090810190601f16801561022f5780820380516001836020036101000a031916815260200191505b509250505060405180910390f35b34801561024957600080fd5b50610288600480360381019080803573ffffffffffffffffffffffffffffffffffffffff169060200190929190803590602001909291905050506109b2565b005b34801561029657600080fd5b5061029f610a74565b604051808263ffffffff1663ffffffff16815260200191505060405180910390f35b3480156102cd57600080fd5b506102d6610a7a565b6040518082815260200191505060405180910390f35b3480156102f857600080fd5b50610357600480360381019080803573ffffffffffffffffffffffffffffffffffffffff169060200190929190803573ffffffffffffffffffffffffffffffffffffffff16906020019092919080359060200190929190505050610a86565b005b34801561036557600080fd5b5061039a600480360381019080803573ffffffffffffffffffffffffffffffffffffffff169060200190929190505050610b37565b6040518082815260200191505060405180910390f35b3480156103bc57600080fd5b50610447600480360381019080803573ffffffffffffffffffffffffffffffffffffffff169060200190929190803590602001908201803590602001908080601f0160208091040260200160405190810160405280939291908181526020018383808284378201915050505050509192919290803563ffffffff169060200190929190505050610b4f565b6040518082815260200191505060405180910390f35b34801561046957600080fd5b506104f4600480360381019080803573ffffffffffffffffffffffffffffffffffffffff169060200190929190803590602001908201803590602001908080601f0160208091040260200160405190810160405280939291908181526020018383808284378201915050505050509192919290803563ffffffff169060200190929190505050610e1b565b6040518082815260200191505060405180910390f35b34801561051657600080fd5b5061053560048036038101908080359060200190929190505050610fc5565b604051808273ffffffffffffffffffffffffffffffffffffffff1673ffffffffffffffffffffffffffffffffffffffff16815260200191505060405180910390f35b34801561058357600080fd5b506105b8600480360381019080803573ffffffffffffffffffffffffffffffffffffffff16906020019092919050505061103e565b6040518082815260200191505060405180910390f35b3480156105da57600080fd5b5061060f600480360381019080803573ffffffffffffffffffffffffffffffffffffffff169060200190929190505050611087565b6040518080602001828103825283818151815260200191508051906020019060200280838360005b83811015610652578082015181840152602081019050610637565b505050509050019250505060405180910390f35b34801561067257600080fd5b506106a7600480360381019080803573ffffffffffffffffffffffffffffffffffffffff169060200190929190505050611204565b6040518082815260200191505060405180910390f35b3480156106c957600080fd5b506106e86004803603810190808035906020019092919050505061121c565b604051808273ffffffffffffffffffffffffffffffffffffffff1673ffffffffffffffffffffffffffffffffffffffff16815260200191505060405180910390f35b34801561073657600080fd5b5061073f61124f565b6040518080602001828103825283818151815260200191508051906020019080838360005b8381101561077f578082015181840152602081019050610764565b50505050905090810190601f1680156107ac5780820380516001836020036101000a031916815260200191505b509250505060405180910390f35b3480156107c657600080fd5b50610805600480360381019080803573ffffffffffffffffffffffffffffffffffffffff16906020019092919080359060200190929190505050611288565b005b34801561081357600080fd5b5061083260048036038101908080359060200190929190505050611323565b604051808273ffffffffffffffffffffffffffffffffffffffff1673ffffffffffffffffffffffffffffffffffffffff16815260200191505060405180910390f35b34801561088057600080fd5b5061089f60048036038101908080359060200190929190505050611356565b604051808273ffffffffffffffffffffffffffffffffffffffff1673ffffffffffffffffffffffffffffffffffffffff16815260200191505060405180910390f35b6000818154811015156108f057fe5b90600052602060002090600302016000915090508060000154908060010154908060020160009054906101000a900473ffffffffffffffffffffffffffffffffffffffff16908060020160149054906101000a900463ffffffff16908060020160189054906101000a900463ffffffff169080600201601c9054906101000a900460ff16905086565b6040805190810160405280600d81526020017f4d6963726f73706f6e736f72730000000000000000000000000000000000000081525081565b6109bc3382611389565b15156109c757600080fd5b6109d181836113ca565b7f8c5be1e5ebec7d5bd14f71427d1e84f3dd0314c0f7b2291e5b200ac8c7c3b925338383604051808473ffffffffffffffffffffffffffffffffffffffff1673ffffffffffffffffffffffffffffffffffffffff1681526020018373ffffffffffffffffffffffffffffffffffffffff1673ffffffffffffffffffffffffffffffffffffffff168152602001828152602001935050505060405180910390a15050565b61384081565b60008080549050905090565b600073ffffffffffffffffffffffffffffffffffffffff168273ffffffffffffffffffffffffffffffffffffffff1614151515610ac257600080fd5b3073ffffffffffffffffffffffffffffffffffffffff168273ffffffffffffffffffffffffffffffffffffffff1614151515610afd57600080fd5b610b073382611420565b1515610b1257600080fd5b610b1c8382611389565b1515610b2757600080fd5b610b3283838361148c565b505050565b60036020528060005260406000206000915090505481565b600080600080610b5d611922565b610b6788886116e0565b935061384086019250610b7b888888610e1b565b915060c0604051908101604052808381526020018581526020018973ffffffffffffffffffffffffffffffffffffffff1681526020018763ffffffff1681526020018463ffffffff16815260200160001515815250905060008190806001815401808255809150509060018203906000526020600020906003020160009091929091909150600082015181600001556020820151816001015560408201518160020160006101000a81548173ffffffffffffffffffffffffffffffffffffffff021916908373ffffffffffffffffffffffffffffffffffffffff16021790555060608201518160020160146101000a81548163ffffffff021916908363ffffffff16021790555060808201518160020160186101000a81548163ffffffff021916908363ffffffff16021790555060a082015181600201601c6101000a81548160ff021916908315150217905550505050876002600084815260200190815260200160002060006101000a81548173ffffffffffffffffffffffffffffffffffffffff021916908373ffffffffffffffffffffffffffffffffffffffff160217905550600360008973ffffffffffffffffffffffffffffffffffffffff1673ffffffffffffffffffffffffffffffffffffffff168152602001908152602001600020600081548092919060010191905055507fddf252ad1be2c89b69c2b068fc378daa952ba7f163c4a11628f55a4df523b3ef60008984604051808473ffffffffffffffffffffffffffffffffffffffff1673ffffffffffffffffffffffffffffffffffffffff1681526020018373ffffffffffffffffffffffffffffffffffffffff1673ffffffffffffffffffffffffffffffffffffffff168152602001828152602001935050505060405180910390a1819450505050509392505050565b60008061384083019050610e2e85611814565b8484836040516020018085805190602001908083835b602083101515610e695780518252602082019150602081019050602083039250610e44565b6001836020036101000a03801982511681845116808217855250505050505090500184805190602001908083835b602083101515610ebc5780518252602082019150602081019050602083039250610e97565b6001836020036101000a0380198251168184511680821785525050505050509050018363ffffffff1663ffffffff167c01000000000000000000000000000000000000000000000000000000000281526004018263ffffffff1663ffffffff167c01000000000000000000000000000000000000000000000000000000000281526004019450505050506040516020818303038152906040526040518082805190602001908083835b602083101515610f8a5780518252602082019150602081019050602083039250610f65565b6001836020036101000a0380198251168184511680821785525050505050509050019150506040518091039020600190049150509392505050565b60006002600083815260200190815260200160002060009054906101000a900473ffffffffffffffffffffffffffffffffffffffff169050600073ffffffffffffffffffffffffffffffffffffffff168173ffffffffffffffffffffffffffffffffffffffff161415151561103957600080fd5b919050565b6000600360008373ffffffffffffffffffffffffffffffffffffffff1673ffffffffffffffffffffffffffffffffffffffff168152602001908152602001600020549050919050565b606060006060600080600061109b8761103e565b945060008514156110de5760006040519080825280602002602001820160405280156110d65781602001602082028038833980820191505090505b5095506111fa565b8460405190808252806020026020018201604052801561110d5781602001602082028038833980820191505090505b509350600161111a610a7a565b03925060009150600090505b82811115156111f6578673ffffffffffffffffffffffffffffffffffffffff1660008281548110151561115557fe5b906000526020600020906003020160020160009054906101000a900473ffffffffffffffffffffffffffffffffffffffff1673ffffffffffffffffffffffffffffffffffffffff1614156111e9576000818154811015156111b257fe5b90600052602060002090600302016000015484838151811015156111d257fe5b906020019060200201818152505081806001019250505b8080600101915050611126565b8395505b5050505050919050565b60016020528060005260406000206000915090505481565b60056020528060005260406000206000915054906101000a900473ffffffffffffffffffffffffffffffffffffffff1681565b6040805190810160405280600381526020017f4d5350000000000000000000000000000000000000000000000000000000000081525081565b600073ffffffffffffffffffffffffffffffffffffffff168273ffffffffffffffffffffffffffffffffffffffff16141515156112c457600080fd5b3073ffffffffffffffffffffffffffffffffffffffff168273ffffffffffffffffffffffffffffffffffffffff16141515156112ff57600080fd5b6113093382611389565b151561131457600080fd5b61131f33838361148c565b5050565b60046020528060005260406000206000915054906101000a900473ffffffffffffffffffffffffffffffffffffffff1681565b60026020528060005260406000206000915054906101000a900473ffffffffffffffffffffffffffffffffffffffff1681565b60008273ffffffffffffffffffffffffffffffffffffffff166113ab83610fc5565b73ffffffffffffffffffffffffffffffffffffffff1614905092915050565b806005600084815260200190815260200160002060006101000a81548173ffffffffffffffffffffffffffffffffffffffff021916908373ffffffffffffffffffffffffffffffffffffffff1602179055505050565b60008273ffffffffffffffffffffffffffffffffffffffff166005600084815260200190815260200160002060009054906101000a900473ffffffffffffffffffffffffffffffffffffffff1673ffffffffffffffffffffffffffffffffffffffff1614905092915050565b816002600083815260200190815260200160002060006101000a81548173ffffffffffffffffffffffffffffffffffffffff021916908373ffffffffffffffffffffffffffffffffffffffff160217905550600360008473ffffffffffffffffffffffffffffffffffffffff1673ffffffffffffffffffffffffffffffffffffffff1681526020019081526020016000206000815480929190600190039190505550600073ffffffffffffffffffffffffffffffffffffffff168373ffffffffffffffffffffffffffffffffffffffff1614151561163c57600360008373ffffffffffffffffffffffffffffffffffffffff1673ffffffffffffffffffffffffffffffffffffffff168152602001908152602001600020600081548092919060010191905055506005600082815260200190815260200160002060006101000a81549073ffffffffffffffffffffffffffffffffffffffff0219169055816004600083815260200190815260200160002060006101000a81548173ffffffffffffffffffffffffffffffffffffffff021916908373ffffffffffffffffffffffffffffffffffffffff1602179055505b7fddf252ad1be2c89b69c2b068fc378daa952ba7f163c4a11628f55a4df523b3ef838383604051808473ffffffffffffffffffffffffffffffffffffffff1673ffffffffffffffffffffffffffffffffffffffff1681526020018373ffffffffffffffffffffffffffffffffffffffff1673ffffffffffffffffffffffffffffffffffffffff168152602001828152602001935050505060405180910390a1505050565b6000806116ec83611846565b905080600160008673ffffffffffffffffffffffffffffffffffffffff1673ffffffffffffffffffffffffffffffffffffffff168152602001908152602001600020819055507fdc1c922a553cc495352bcdbe90335b925277134a1e63f61e7a26e5f414364c35818585604051808481526020018373ffffffffffffffffffffffffffffffffffffffff1673ffffffffffffffffffffffffffffffffffffffff16815260200180602001828103825283818151815260200191508051906020019080838360005b838110156117ce5780820151818401526020810190506117b3565b50505050905090810190601f1680156117fb5780820380516001836020036101000a031916815260200191505b5094505050505060405180910390a18091505092915050565b606060405182741400000000000000000000000000000000000000001860148201526034810160405280915050919050565b6000816040516020018082805190602001908083835b602083101515611881578051825260208201915060208101905060208303925061185c565b6001836020036101000a0380198251168184511680821785525050505050509050019150506040516020818303038152906040526040518082805190602001908083835b6020831015156118ea57805182526020820191506020810190506020830392506118c5565b6001836020036101000a0380198251168184511680821785525050505050509050019150506040518091039020600190049050919050565b60c0604051908101604052806000815260200160008152602001600073ffffffffffffffffffffffffffffffffffffffff168152602001600063ffffffff168152602001600063ffffffff16815260200160001515815250905600a165627a7a72305820568f7060722ab25f96309680c32777b760600b1643f4f38a39ab0635739f7bc70029",
  "source": "/**\n * Microsponsors.io ERC721 Contract - DEMO\n * For 0x Hackathon -  Feb 2019\n *\n * NOTE:\n * This is a very rough draft for demonstration purposes only.\n *\n * This demo uses ERC721 NFTs as a marketplace for sponsorship of content creators.\n * Each token is a Non-Fungible Token (NFT) that represents a time window during\n * which a content creators' property is available to rent by sponsors.\n *\n * Non-Fungible tokens are perfect for this use-case because each sponsorship\n * slot has a unique value, and will change given its time window.\n *\n * Patterned after 0x Dummy ERC721 ABI:\n * https://github.com/0xProject/0x-monorepo/blob/development/python-packages/contract_artifacts/src/zero_ex/contract_artifacts/artifacts/DummyERC721Token.json*\n */\n\npragma solidity ^0.4.24;\n\n// TODO LATER:\n// import \"./Ownable.sol\";\n\ncontract Microsponsors {\n\n  string public constant name = \"Microsponsors\";\n  string public constant symbol = \"MSP\";\n\n  // TODO LATER duration is hard-coded to 4hr slots for demo purposes\n  // these will be longer/ varied and schedule-able by creator in production:\n  uint32 public constant duration = 4 hours;\n\n  /**\n  * Events emitted\n  */\n  event PropertyCreated(uint256 propertyId, address creator, string desrciption);\n  event Transfer(address from, address to, uint256 tokenId);\n  event Approval(address owner, address approved, uint256 tokenId);\n  // TODO:\n  // event ApprovalForAll(address indexed owner, address indexed operator, bool approved);\n\n\n  /**\n   * Data\n   */\n\n  // The Microsponsors ERC721 Token:\n  // A SponsorSlot is a window of time during which a Property can be\n  // purchased by a sponsor\n  struct SponsorSlot {\n    uint256 id; // token id\n    uint256 propertyId; // the property to split into tokenized time slots\n    address owner; // creator of slot; defaults to content creator when minted\n    uint32 startTime; // timestamp for when sponsor slot of a Property begins\n    uint32 endTime; // max timestamp of sponsor slot (when it ends)\n    bool isSponsored; // defaults to false when minted\n  }\n\n  SponsorSlot[] public sponsorSlots;\n\n  mapping (address => uint256) public creatorToProperty;\n  mapping (uint256 => address) public sponsorSlotToOwner;\n  mapping (address => uint256) public ownerToSponsorSlotCount;\n  mapping (uint256 => address) public sponsorSlotToSponsor;\n\n  // Mapping from SponsorSlot ids to an address that has been approved to call\n  // transferFrom(). Each  can only have one approved address for transfer\n  // at any time.\n  mapping (uint256 => address) public sponsorSlotToApproved;\n\n\n  /**\n  * Init contract\n  */\n\n  constructor() public {}\n\n\n  /**\n  * Primary public methods\n  */\n\n  /**\n   *  Mint the new SponsorSlot token, assign its ownership to content creator\n   *  that is seeking sponsorship of token.\n   *  Token will then be transfered to the sponsor when they purchase it.\n   *\n   *  TODO LATER: let anyone mint during demo, but production version should\n   *  restrict minting to msg.sender by removing _creator param and setting\n   *  SponsorSlot.owner to msg.sender.\n   */\n  function mint(\n    address _creator,\n    string _propertyDescription,\n    uint32 _startTime\n  ) public returns (uint256) {\n\n    // TODO LATER enforce authorization per user onboarding:\n    // require(isAuthorized(msg.sender));\n\n    uint256 _propertyId = _createProperty(_creator, _propertyDescription);\n    uint32 _endTime = uint32(_startTime + duration);\n\n    // TODO\n    // require(_isValidSponsorSlot(_creator, _propertyDescription, _startTime));\n\n    uint256 tokenId = generateTokenId(_creator, _propertyDescription, _startTime);\n\n    SponsorSlot memory _sponsorSlot = SponsorSlot({\n      id: uint256(tokenId),\n      propertyId: uint256(_propertyId),\n      owner: _creator,\n      startTime: uint32(_startTime),\n      endTime: uint32(_endTime),\n      isSponsored: false\n    });\n\n    sponsorSlots.push(_sponsorSlot);\n    sponsorSlotToOwner[tokenId] = _creator;\n    ownerToSponsorSlotCount[_creator]++;\n\n    emit Transfer(address(0), _creator, tokenId);\n\n    return tokenId;\n  }\n\n  /**\n   *  Generate token id with predictable formula\n   *  Optimizes minting process so that it does NOT cost content creators\n   *  extra gas to mint tokens.\n   *  -- h/t to FuelGames.io for the pointer\n   */\n  function generateTokenId(\n    address _creator,\n    string _propertyDescription,\n    uint32 _startTime\n  ) public pure returns (uint256) {\n\n    uint32 _endTime = uint32(_startTime + duration);\n\n    return uint256(\n      keccak256(\n        abi.encodePacked(\n          _addressToBytes(_creator),\n          _propertyDescription,\n          _startTime,\n          _endTime\n        )\n      )\n    );\n  }\n\n\n  /**\n   * ERC721 methods\n   */\n\n  function totalSupply() public view returns (uint) {\n    return sponsorSlots.length;\n  }\n\n  function balanceOf(address _owner) public view returns (uint256 count) {\n    return ownerToSponsorSlotCount[_owner];\n  }\n\n  function ownerOf(uint256 _tokenId) public view returns (address owner) {\n    owner = sponsorSlotToOwner[_tokenId];\n    require(owner != address(0));\n  }\n\n  // Creator approves transfer of the token (a SponsorSlot) to the sponsor\n  // Bidding and order-matching takes place off-chain, so the slot will only\n  // change hands once, from creator to sponsor.\n  function approve(address _to, uint256 _tokenId) external {\n    require(_owns(msg.sender, _tokenId));\n    _approve(_tokenId, _to);\n    emit Approval(msg.sender, _to, _tokenId);\n  }\n\n  // Creators may transfer their own SponsorSlot tokens to another address.\n  function transfer(address _to, uint256 _tokenId) external {\n    // Safety check to prevent against an unexpected 0x0 default.\n    require(_to != address(0));\n    // Disallow transfers to this contract to prevent accidental misuse.\n    // The contract should never own any tokenized SponsorSlots\n    require(_to != address(this));\n    // Only creators can transfer tokenized SponsorSlots to sponsors.\n    require(_owns(msg.sender, _tokenId));\n    // Reassign ownership, clear pending approvals, emit Transfer event.\n    _transfer(msg.sender, _to, _tokenId);\n  }\n\n  // Transfer a SponsorSlot token owned by another address, for which the\n  // calling address has previously been granted transfer approval by the owner.\n  function transferFrom(address _from, address _to, uint256 _tokenId) external {\n    // Safety check to prevent against an unexpected 0x0 default.\n    require(_to != address(0));\n    // Disallow transfers to this contract to prevent accidental misuse.\n    require(_to != address(this));\n    // Check for approval and valid ownership\n    require(_approvedFor(msg.sender, _tokenId));\n    require(_owns(_from, _tokenId));\n\n    // Reassign ownership (also clears pending approvals and emits Transfer event).\n    _transfer(_from, _to, _tokenId);\n  }\n\n  // Returns list of all SponsorSlot ids belonging to an address\n  // Returns a dynamic array, therefore does not support contract-to-contract\n  // calls. Only supported for web3 calls.\n  function tokensOfOwner(address _owner) external view returns (uint256[] tokenIds) {\n    uint256 tokenCount = balanceOf(_owner);\n\n    if (tokenCount == 0) {\n      return new uint256[](0);\n    } else {\n      uint256[] memory result = new uint256[](tokenCount);\n\n      uint256 totalSlots = totalSupply() - 1;\n      uint256 resultIndex = 0;\n\n      for (uint256 counter = 0; counter <= totalSlots; counter++) {\n          // if (sponsorSlots[counter].exists) {\n            if (sponsorSlots[counter].owner == _owner) {\n              result[resultIndex] = sponsorSlots[counter].id;\n              resultIndex++;\n            }\n          // }\n      }\n\n      return result;\n    }\n  }\n\n  /** TODO\n   *  https://github.com/OpenZeppelin/openzeppelin-solidity/blob/master/contracts/token/ERC721/ERC721.sol\n   *  @dev Sets or unsets the approval of a given operator\n   *  An operator is allowed to transfer all tokens of the sender on their behalf\n   *  @param to operator address to set the approval\n   *  @param approved representing the status of the approval to be set\n   */\n\n  // function setApprovalForAll(address to, bool approved) public {\n  //     require(to != msg.sender);\n  //     _operatorApprovals[msg.sender][to] = approved;\n  //     emit ApprovalForAll(msg.sender, to, approved);\n  // }\n\n  /** TODO\n   *  https://github.com/OpenZeppelin/openzeppelin-solidity/blob/master/contracts/token/ERC721/ERC721.sol\n   *  @dev Gets the approved address for a token ID, or zero if no address set\n   *  Reverts if the token ID does not exist.\n   *  @param tokenId uint256 ID of the token to query the approval of\n   *  @return address currently approved for the given token ID\n   */\n\n  // function getApproved(uint256 tokenId) public view returns (address) {\n  //     require(_exists(tokenId));\n  //     return _tokenApprovals[tokenId];\n  // }\n\n  /** TODO\n   *  https://github.com/OpenZeppelin/openzeppelin-solidity/blob/master/contracts/token/ERC721/ERC721.sol\n   *  @dev Safely transfers the ownership of a given token ID to another address\n   *  If the target address is a contract, it must implement `onERC721Received`,\n   *  which is called upon a safe transfer, and return the magic value\n   *  `bytes4(keccak256(\"onERC721Received(address,address,uint256,bytes)\"))`; otherwise,\n   *  the transfer is reverted.\n   *  Requires the msg.sender to be the owner, approved, or operator\n   *  @param from current owner of the token\n   *  @param to address to receive the ownership of the given token ID\n   *  @param tokenId uint256 ID of the token to be transferred\n   */\n\n  // function safeTransferFrom(address from, address to, uint256 tokenId) public {\n  //     safeTransferFrom(from, to, tokenId, \"\");\n  // }\n\n  /** TODO\n   *  https://github.com/OpenZeppelin/openzeppelin-solidity/blob/master/contracts/token/ERC721/ERC721.sol\n   *  @dev Tells whether an operator is approved by a given owner\n   *  @param owner owner address which you want to query the approval of\n   *  @param operator operator address which you want to query the approval of\n   *  @return bool whether the given operator is approved by the given owner\n   */\n\n  // function isApprovedForAll(address owner, address operator) public view returns (bool) {\n  //     return _operatorApprovals[owner][operator];\n  // }\n\n  /** TODO\n   * @dev Internal function to burn a specific token\n   * Reverts if the token does not exist\n   * @param tokenId uint256 ID of the token being burned\n   */\n  // function _burn(uint256 tokenId) internal {\n  //     _burn(ownerOf(tokenId), tokenId);\n  // }\n\n  /** TODO\n   * @dev Tells whether an operator is approved by a given owner\n   * @param owner owner address which you want to query the approval of\n   * @param operator operator address which you want to query the approval of\n   * @return bool whether the given operator is approved by the given owner\n   */\n  // function isApprovedForAll(address owner, address operator) public view returns (bool) {\n  //     return _operatorApprovals[owner][operator];\n  // }\n\n  // TODO - ?\n  // transferOwnership()\n  // 0x Dummy ERC721 ABI specifies this function\n  // Not sure if its really necessary:\n  // https://github.com/0xProject/0x-monorepo/blob/development/python-packages/contract_artifacts/src/zero_ex/contract_artifacts/artifacts/DummyERC721Token.json\n\n\n  /**\n   * Private Helper Methods\n   */\n\n  function _createProperty(\n    address _creator,\n    string _description\n  ) private returns (uint256) {\n\n    // TODO Ensure there are no duplicate properties created (per creator)\n    // TODO Skip if already created and just return property id\n    uint256 _propertyId = _generatePropertyId(_description);\n    creatorToProperty[_creator] = _propertyId;\n    emit PropertyCreated(_propertyId, _creator, _description);\n\n    return _propertyId;\n  }\n\n  function _generatePropertyId(string _description) internal pure returns (uint256) {\n    return uint256(keccak256(abi.encodePacked(_description)));\n  }\n\n  // Check if Property is available during time window specified by SponsorSlot\n  // function _isValidSponsorSlot(\n    // address _creator,\n    // string _propertyDescription,\n    // uint32 _startTime,\n    // uint32 _endTime\n  // ) private pure returns (bool) {\n\n    // TODO\n    // ensure start time is valid/ not duplicate\n    // ensure duration time is valid/ not overlapping w others\n    // return true;\n  // }\n\n  function _owns(address _claimant, uint256 _tokenId) internal view returns (bool) {\n    return (ownerOf(_tokenId) == _claimant);\n  }\n\n  function _approve(uint256 _tokenId, address _approved) internal {\n    sponsorSlotToApproved[_tokenId] = _approved;\n  }\n\n  // TODO: for demo purposes, we may want to disable this check\n  function _approvedFor(address _claimant, uint256 _tokenId) internal view returns (bool) {\n    return sponsorSlotToApproved[_tokenId] == _claimant;\n  }\n\n  function _transfer(address _from, address _to, uint256 _tokenId) internal {\n      // transfer ownership\n      sponsorSlotToOwner[_tokenId] = _to;\n      // decrement creator's SponsorSlot token count\n      ownerToSponsorSlotCount[_from]--;\n\n      if (_from != address(0)) {\n        // increment sponsors' SponsorSlot token count\n        ownerToSponsorSlotCount[_to]++;\n        // clear previous ownership approval\n        delete sponsorSlotToApproved[_tokenId];\n        // map sponsor slot to sponsor\n        sponsorSlotToSponsor[_tokenId] = _to;\n      }\n      // Emit the transfer event.\n      emit Transfer(_from, _to, _tokenId);\n  }\n\n\n  /**\n   * Private util methods\n   */\n\n  function _addressToBytes(address a) internal pure returns (bytes b){\n     assembly {\n          let m := mload(0x40)\n          mstore(add(m, 20), xor(0x140000000000000000000000000000000000000000, a))\n          mstore(0x40, add(m, 52))\n          b := m\n     }\n  }\n\n}\n",
  "sourcePath": "/Users/lauren/github/0x-hackathon-contracts/contracts/Microsponsors.sol",
  "compiler": {
    "name": "solc",
    "version": "0.4.25+commit.59dbf8f1.Emscripten.clang"
  },
  "schemaVersion": "2.0.2",
  "updatedAt": "2019-02-02T00:23:13.920Z"
}